{
  "contractName": "ERC20Fee",
  "abi": [
    {
      "inputs": [
        {
          "internalType": "string",
          "name": "name",
          "type": "string"
        },
        {
          "internalType": "string",
          "name": "symbol",
          "type": "string"
        },
        {
          "internalType": "uint8",
          "name": "decimals",
          "type": "uint8"
        }
      ],
      "payable": false,
      "stateMutability": "nonpayable",
      "type": "constructor"
    },
    {
      "anonymous": false,
      "inputs": [
        {
          "indexed": true,
          "internalType": "address",
          "name": "owner",
          "type": "address"
        },
        {
          "indexed": true,
          "internalType": "address",
          "name": "spender",
          "type": "address"
        },
        {
          "indexed": false,
          "internalType": "uint256",
          "name": "value",
          "type": "uint256"
        }
      ],
      "name": "Approval",
      "type": "event"
    },
    {
      "anonymous": false,
      "inputs": [
        {
          "indexed": true,
          "internalType": "address",
          "name": "feesCollector",
          "type": "address"
        },
        {
          "indexed": true,
          "internalType": "uint256",
          "name": "fee",
          "type": "uint256"
        }
      ],
      "name": "Fee",
      "type": "event"
    },
    {
      "anonymous": false,
      "inputs": [
        {
          "indexed": true,
          "internalType": "address",
          "name": "feesCollector",
          "type": "address"
        },
        {
          "indexed": true,
          "internalType": "address",
          "name": "newFeesCollector",
          "type": "address"
        }
      ],
      "name": "FeesCollector",
      "type": "event"
    },
    {
      "anonymous": false,
      "inputs": [
        {
          "indexed": true,
          "internalType": "address",
          "name": "previousOwner",
          "type": "address"
        },
        {
          "indexed": true,
          "internalType": "address",
          "name": "newOwner",
          "type": "address"
        }
      ],
      "name": "OwnershipTransferred",
      "type": "event"
    },
    {
      "anonymous": false,
      "inputs": [
        {
          "indexed": true,
          "internalType": "uint256",
          "name": "newBasisPointsRate",
          "type": "uint256"
        },
        {
          "indexed": true,
          "internalType": "uint256",
          "name": "newMaximumFee",
          "type": "uint256"
        }
      ],
      "name": "Params",
      "type": "event"
    },
    {
      "anonymous": false,
      "inputs": [
        {
          "indexed": true,
          "internalType": "address",
          "name": "account",
          "type": "address"
        },
        {
          "indexed": true,
          "internalType": "uint256",
          "name": "newBasisPointsRate",
          "type": "uint256"
        },
        {
          "indexed": false,
          "internalType": "uint256",
          "name": "newMaximumFee",
          "type": "uint256"
        },
        {
          "indexed": false,
          "internalType": "uint256",
          "name": "newMinimumFee",
          "type": "uint256"
        }
      ],
      "name": "SpecialParams",
      "type": "event"
    },
    {
      "anonymous": false,
      "inputs": [
        {
          "indexed": true,
          "internalType": "address",
          "name": "from",
          "type": "address"
        },
        {
          "indexed": true,
          "internalType": "address",
          "name": "to",
          "type": "address"
        },
        {
          "indexed": false,
          "internalType": "uint256",
          "name": "value",
          "type": "uint256"
        }
      ],
      "name": "Transfer",
      "type": "event"
    },
    {
      "constant": true,
      "inputs": [],
      "name": "decimals",
      "outputs": [
        {
          "internalType": "uint8",
          "name": "",
          "type": "uint8"
        }
      ],
      "payable": false,
      "stateMutability": "view",
      "type": "function"
    },
    {
      "constant": true,
      "inputs": [],
      "name": "isOwner",
      "outputs": [
        {
          "internalType": "bool",
          "name": "",
          "type": "bool"
        }
      ],
      "payable": false,
      "stateMutability": "view",
      "type": "function"
    },
    {
      "constant": true,
      "inputs": [],
      "name": "name",
      "outputs": [
        {
          "internalType": "string",
          "name": "",
          "type": "string"
        }
      ],
      "payable": false,
      "stateMutability": "view",
      "type": "function"
    },
    {
      "constant": true,
      "inputs": [],
      "name": "owner",
      "outputs": [
        {
          "internalType": "address",
          "name": "",
          "type": "address"
        }
      ],
      "payable": false,
      "stateMutability": "view",
      "type": "function"
    },
    {
      "constant": false,
      "inputs": [],
      "name": "renounceOwnership",
      "outputs": [],
      "payable": false,
      "stateMutability": "nonpayable",
      "type": "function"
    },
    {
      "constant": true,
      "inputs": [],
      "name": "symbol",
      "outputs": [
        {
          "internalType": "string",
          "name": "",
          "type": "string"
        }
      ],
      "payable": false,
      "stateMutability": "view",
      "type": "function"
    },
    {
      "constant": false,
      "inputs": [
        {
          "internalType": "address",
          "name": "newOwner",
          "type": "address"
        }
      ],
      "name": "transferOwnership",
      "outputs": [],
      "payable": false,
      "stateMutability": "nonpayable",
      "type": "function"
    },
    {
      "constant": true,
      "inputs": [],
      "name": "totalSupply",
      "outputs": [
        {
          "internalType": "uint256",
          "name": "",
          "type": "uint256"
        }
      ],
      "payable": false,
      "stateMutability": "view",
      "type": "function"
    },
    {
      "constant": true,
      "inputs": [
        {
          "internalType": "address",
          "name": "account",
          "type": "address"
        }
      ],
      "name": "balanceOf",
      "outputs": [
        {
          "internalType": "uint256",
          "name": "",
          "type": "uint256"
        }
      ],
      "payable": false,
      "stateMutability": "view",
      "type": "function"
    },
    {
      "constant": true,
      "inputs": [],
      "name": "basisPointsRate",
      "outputs": [
        {
          "internalType": "uint256",
          "name": "",
          "type": "uint256"
        }
      ],
      "payable": false,
      "stateMutability": "view",
      "type": "function"
    },
    {
      "constant": true,
      "inputs": [],
      "name": "minimumFee",
      "outputs": [
        {
          "internalType": "uint256",
          "name": "",
          "type": "uint256"
        }
      ],
      "payable": false,
      "stateMutability": "view",
      "type": "function"
    },
    {
      "constant": true,
      "inputs": [],
      "name": "maximumFee",
      "outputs": [
        {
          "internalType": "uint256",
          "name": "",
          "type": "uint256"
        }
      ],
      "payable": false,
      "stateMutability": "view",
      "type": "function"
    },
    {
      "constant": true,
      "inputs": [],
      "name": "denominator",
      "outputs": [
        {
          "internalType": "uint256",
          "name": "",
          "type": "uint256"
        }
      ],
      "payable": false,
      "stateMutability": "view",
      "type": "function"
    },
    {
      "constant": true,
      "inputs": [],
      "name": "feesCollector",
      "outputs": [
        {
          "internalType": "address",
          "name": "",
          "type": "address"
        }
      ],
      "payable": false,
      "stateMutability": "view",
      "type": "function"
    },
    {
      "constant": true,
      "inputs": [
        {
          "internalType": "address",
          "name": "account",
          "type": "address"
        }
      ],
      "name": "fees",
      "outputs": [
        {
          "internalType": "uint256",
          "name": "",
          "type": "uint256"
        },
        {
          "internalType": "uint256",
          "name": "",
          "type": "uint256"
        },
        {
          "internalType": "uint256",
          "name": "",
          "type": "uint256"
        },
        {
          "internalType": "bool",
          "name": "",
          "type": "bool"
        }
      ],
      "payable": false,
      "stateMutability": "view",
      "type": "function"
    },
    {
      "constant": false,
      "inputs": [
        {
          "internalType": "address",
          "name": "newFeesCollector",
          "type": "address"
        }
      ],
      "name": "setFeesCollector",
      "outputs": [
        {
          "internalType": "bool",
          "name": "",
          "type": "bool"
        }
      ],
      "payable": false,
      "stateMutability": "nonpayable",
      "type": "function"
    },
    {
      "constant": false,
      "inputs": [
        {
          "internalType": "uint256",
          "name": "newBasisPoints",
          "type": "uint256"
        },
        {
          "internalType": "uint256",
          "name": "newMinFee",
          "type": "uint256"
        },
        {
          "internalType": "uint256",
          "name": "newMaxFee",
          "type": "uint256"
        }
      ],
      "name": "setParams",
      "outputs": [
        {
          "internalType": "bool",
          "name": "",
          "type": "bool"
        }
      ],
      "payable": false,
      "stateMutability": "nonpayable",
      "type": "function"
    },
    {
      "constant": false,
      "inputs": [
        {
          "internalType": "address",
          "name": "account",
          "type": "address"
        },
        {
          "internalType": "uint256",
          "name": "newBasisPoints",
          "type": "uint256"
        },
        {
          "internalType": "uint256",
          "name": "newMinFee",
          "type": "uint256"
        },
        {
          "internalType": "uint256",
          "name": "newMaxFee",
          "type": "uint256"
        },
        {
          "internalType": "bool",
          "name": "state",
          "type": "bool"
        }
      ],
      "name": "setSpecialParams",
      "outputs": [
        {
          "internalType": "bool",
          "name": "",
          "type": "bool"
        }
      ],
      "payable": false,
      "stateMutability": "nonpayable",
      "type": "function"
    },
    {
      "constant": false,
      "inputs": [
        {
          "internalType": "address",
          "name": "account",
          "type": "address"
        },
        {
          "internalType": "uint256",
          "name": "amount",
          "type": "uint256"
        }
      ],
      "name": "calculateFee",
      "outputs": [
        {
          "internalType": "uint256",
          "name": "",
          "type": "uint256"
        }
      ],
      "payable": false,
      "stateMutability": "nonpayable",
      "type": "function"
    },
    {
      "constant": false,
      "inputs": [
        {
          "internalType": "address",
          "name": "recipient",
          "type": "address"
        },
        {
          "internalType": "uint256",
          "name": "amount",
          "type": "uint256"
        }
      ],
      "name": "transfer",
      "outputs": [
        {
          "internalType": "bool",
          "name": "",
          "type": "bool"
        }
      ],
      "payable": false,
      "stateMutability": "nonpayable",
      "type": "function"
    },
    {
      "constant": true,
      "inputs": [
        {
          "internalType": "address",
          "name": "owner",
          "type": "address"
        },
        {
          "internalType": "address",
          "name": "spender",
          "type": "address"
        }
      ],
      "name": "allowance",
      "outputs": [
        {
          "internalType": "uint256",
          "name": "",
          "type": "uint256"
        }
      ],
      "payable": false,
      "stateMutability": "view",
      "type": "function"
    },
    {
      "constant": false,
      "inputs": [
        {
          "internalType": "address",
          "name": "spender",
          "type": "address"
        },
        {
          "internalType": "uint256",
          "name": "amount",
          "type": "uint256"
        }
      ],
      "name": "approve",
      "outputs": [
        {
          "internalType": "bool",
          "name": "",
          "type": "bool"
        }
      ],
      "payable": false,
      "stateMutability": "nonpayable",
      "type": "function"
    },
    {
      "constant": false,
      "inputs": [
        {
          "internalType": "address",
          "name": "sender",
          "type": "address"
        },
        {
          "internalType": "address",
          "name": "recipient",
          "type": "address"
        },
        {
          "internalType": "uint256",
          "name": "amount",
          "type": "uint256"
        }
      ],
      "name": "transferFrom",
      "outputs": [
        {
          "internalType": "bool",
          "name": "",
          "type": "bool"
        }
      ],
      "payable": false,
      "stateMutability": "nonpayable",
      "type": "function"
    },
    {
      "constant": false,
      "inputs": [
        {
          "internalType": "address",
          "name": "spender",
          "type": "address"
        },
        {
          "internalType": "uint256",
          "name": "addedValue",
          "type": "uint256"
        }
      ],
      "name": "increaseAllowance",
      "outputs": [
        {
          "internalType": "bool",
          "name": "",
          "type": "bool"
        }
      ],
      "payable": false,
      "stateMutability": "nonpayable",
      "type": "function"
    },
    {
      "constant": false,
      "inputs": [
        {
          "internalType": "address",
          "name": "spender",
          "type": "address"
        },
        {
          "internalType": "uint256",
          "name": "subtractedValue",
          "type": "uint256"
        }
      ],
      "name": "decreaseAllowance",
      "outputs": [
        {
          "internalType": "bool",
          "name": "",
          "type": "bool"
        }
      ],
      "payable": false,
      "stateMutability": "nonpayable",
      "type": "function"
    }
  ],
  "bytecode": "0x60806040523480156200001157600080fd5b50604051620027b4380380620027b4833981810160405260608110156200003757600080fd5b81019080805160405193929190846401000000008211156200005857600080fd5b838201915060208201858111156200006f57600080fd5b82518660018202830111640100000000821117156200008d57600080fd5b8083526020830192505050908051906020019080838360005b83811015620000c3578082015181840152602081019050620000a6565b50505050905090810190601f168015620000f15780820380516001836020036101000a031916815260200191505b50604052602001805160405193929190846401000000008211156200011557600080fd5b838201915060208201858111156200012c57600080fd5b82518660018202830111640100000000821117156200014a57600080fd5b8083526020830192505050908051906020019080838360005b838110156200018057808201518184015260208101905062000163565b50505050905090810190601f168015620001ae5780820380516001836020036101000a031916815260200191505b50604052602001805190602001909291905050508282826000620001d76200033760201b60201c565b9050806000806101000a81548173ffffffffffffffffffffffffffffffffffffffff021916908373ffffffffffffffffffffffffffffffffffffffff1602179055508073ffffffffffffffffffffffffffffffffffffffff16600073ffffffffffffffffffffffffffffffffffffffff167f8be0079c531659141344cd1fd0a4f28419497f9722a3daafe3b4186f6b6457e060405160405180910390a35082600190805190602001906200028d9291906200033f565b508160029080519060200190620002a69291906200033f565b5080600360006101000a81548160ff021916908360ff16021790555050505060006008819055506000600a81905550620002e56200033760201b60201c565b600c60006101000a81548173ffffffffffffffffffffffffffffffffffffffff021916908373ffffffffffffffffffffffffffffffffffffffff160217905550612710600b81905550505050620003ee565b600033905090565b828054600181600116156101000203166002900490600052602060002090601f016020900481019282601f106200038257805160ff1916838001178555620003b3565b82800160010185558215620003b3579182015b82811115620003b257825182559160200191906001019062000395565b5b509050620003c29190620003c6565b5090565b620003eb91905b80821115620003e7576000816000905550600101620003cd565b5090565b90565b6123b680620003fe6000396000f3fe608060405234801561001057600080fd5b50600436106101735760003560e01c80638b28ab1e116100de578063a457c2d711610097578063dd62ed3e11610071578063dd62ed3e146107ee578063dd644f7214610866578063f2fde38b14610884578063faaebd21146108c857610173565b8063a457c2d71461069c578063a9059cbb14610702578063d065a2991461076857610173565b80638b28ab1e146104e35780638da5cb5b146105455780638f32d59b1461058f57806395d89b41146105b157806396ce0795146106345780639cf160f61461065257610173565b806335390714116101305780633539071414610347578063373071f21461036557806339509351146103c15780635a0ce6761461042757806370a0823114610481578063715018a6146104d957610173565b806306fdde0314610178578063095ea7b3146101fb57806318160ddd146102615780631a7626e71461027f57806323b872dd1461029d578063313ce56714610323575b600080fd5b610180610939565b6040518080602001828103825283818151815260200191508051906020019080838360005b838110156101c05780820151818401526020810190506101a5565b50505050905090810190601f1680156101ed5780820380516001836020036101000a031916815260200191505b509250505060405180910390f35b6102476004803603604081101561021157600080fd5b81019080803573ffffffffffffffffffffffffffffffffffffffff169060200190929190803590602001909291905050506109db565b604051808215151515815260200191505060405180910390f35b6102696109f9565b6040518082815260200191505060405180910390f35b610287610a03565b6040518082815260200191505060405180910390f35b610309600480360360608110156102b357600080fd5b81019080803573ffffffffffffffffffffffffffffffffffffffff169060200190929190803573ffffffffffffffffffffffffffffffffffffffff16906020019092919080359060200190929190505050610a0d565b604051808215151515815260200191505060405180910390f35b61032b610ae6565b604051808260ff1660ff16815260200191505060405180910390f35b61034f610afd565b6040518082815260200191505060405180910390f35b6103a76004803603602081101561037b57600080fd5b81019080803573ffffffffffffffffffffffffffffffffffffffff169060200190929190505050610b07565b604051808215151515815260200191505060405180910390f35b61040d600480360360408110156103d757600080fd5b81019080803573ffffffffffffffffffffffffffffffffffffffff16906020019092919080359060200190929190505050610ccf565b604051808215151515815260200191505060405180910390f35b6104676004803603606081101561043d57600080fd5b81019080803590602001909291908035906020019092919080359060200190929190505050610d82565b604051808215151515815260200191505060405180910390f35b6104c36004803603602081101561049757600080fd5b81019080803573ffffffffffffffffffffffffffffffffffffffff169060200190929190505050610e50565b6040518082815260200191505060405180910390f35b6104e1610e99565b005b61052f600480360360408110156104f957600080fd5b81019080803573ffffffffffffffffffffffffffffffffffffffff16906020019092919080359060200190929190505050610fd2565b6040518082815260200191505060405180910390f35b61054d6110a7565b604051808273ffffffffffffffffffffffffffffffffffffffff1673ffffffffffffffffffffffffffffffffffffffff16815260200191505060405180910390f35b6105976110d0565b604051808215151515815260200191505060405180910390f35b6105b961112e565b6040518080602001828103825283818151815260200191508051906020019080838360005b838110156105f95780820151818401526020810190506105de565b50505050905090810190601f1680156106265780820380516001836020036101000a031916815260200191505b509250505060405180910390f35b61063c6111d0565b6040518082815260200191505060405180910390f35b61065a6111da565b604051808273ffffffffffffffffffffffffffffffffffffffff1673ffffffffffffffffffffffffffffffffffffffff16815260200191505060405180910390f35b6106e8600480360360408110156106b257600080fd5b81019080803573ffffffffffffffffffffffffffffffffffffffff16906020019092919080359060200190929190505050611204565b604051808215151515815260200191505060405180910390f35b61074e6004803603604081101561071857600080fd5b81019080803573ffffffffffffffffffffffffffffffffffffffff169060200190929190803590602001909291905050506112d1565b604051808215151515815260200191505060405180910390f35b6107d4600480360360a081101561077e57600080fd5b81019080803573ffffffffffffffffffffffffffffffffffffffff1690602001909291908035906020019092919080359060200190929190803590602001909291908035151590602001909291905050506112ef565b604051808215151515815260200191505060405180910390f35b6108506004803603604081101561080457600080fd5b81019080803573ffffffffffffffffffffffffffffffffffffffff169060200190929190803573ffffffffffffffffffffffffffffffffffffffff16906020019092919050505061147e565b6040518082815260200191505060405180910390f35b61086e611505565b6040518082815260200191505060405180910390f35b6108c66004803603602081101561089a57600080fd5b81019080803573ffffffffffffffffffffffffffffffffffffffff16906020019092919050505061150f565b005b61090a600480360360208110156108de57600080fd5b81019080803573ffffffffffffffffffffffffffffffffffffffff169060200190929190505050611595565b604051808581526020018481526020018381526020018215151515815260200194505050505060405180910390f35b606060018054600181600116156101000203166002900480601f0160208091040260200160405190810160405280929190818152602001828054600181600116156101000203166002900480156109d15780601f106109a6576101008083540402835291602001916109d1565b820191906000526020600020905b8154815290600101906020018083116109b457829003601f168201915b5050505050905090565b60006109ef6109e86116c3565b84846116cb565b6001905092915050565b6000600754905090565b6000600954905090565b6000610a1a8484846118c2565b610adb84610a266116c3565b610ad68560405180606001604052806028815260200161231160289139600660008b73ffffffffffffffffffffffffffffffffffffffff1673ffffffffffffffffffffffffffffffffffffffff1681526020019081526020016000206000610a8c6116c3565b73ffffffffffffffffffffffffffffffffffffffff1673ffffffffffffffffffffffffffffffffffffffff16815260200190815260200160002054611d629092919063ffffffff16565b6116cb565b600190509392505050565b6000600360009054906101000a900460ff16905090565b6000600a54905090565b6000610b116110d0565b610b83576040517f08c379a00000000000000000000000000000000000000000000000000000000081526004018080602001828103825260208152602001807f4f776e61626c653a2063616c6c6572206973206e6f7420746865206f776e657281525060200191505060405180910390fd5b600073ffffffffffffffffffffffffffffffffffffffff168273ffffffffffffffffffffffffffffffffffffffff161415610c09576040517f08c379a00000000000000000000000000000000000000000000000000000000081526004018080602001828103825260388152602001806122926038913960400191505060405180910390fd5b8173ffffffffffffffffffffffffffffffffffffffff16600c60009054906101000a900473ffffffffffffffffffffffffffffffffffffffff1673ffffffffffffffffffffffffffffffffffffffff167faa031270faa14f493eb7abc5f320365ba17b6cee9ff519872743406dbbc77c4460405160405180910390a381600c60006101000a81548173ffffffffffffffffffffffffffffffffffffffff021916908373ffffffffffffffffffffffffffffffffffffffff16021790555060019050919050565b6000610d78610cdc6116c3565b84610d738560066000610ced6116c3565b73ffffffffffffffffffffffffffffffffffffffff1673ffffffffffffffffffffffffffffffffffffffff16815260200190815260200160002060008973ffffffffffffffffffffffffffffffffffffffff1673ffffffffffffffffffffffffffffffffffffffff16815260200190815260200160002054611e2290919063ffffffff16565b6116cb565b6001905092915050565b6000610d8c6110d0565b610dfe576040517f08c379a00000000000000000000000000000000000000000000000000000000081526004018080602001828103825260208152602001807f4f776e61626c653a2063616c6c6572206973206e6f7420746865206f776e657281525060200191505060405180910390fd5b836008819055508260098190555081600a81905550600a546008547fb044a1e409eac5c48e5af22d4af52670dd1a99059537a78b31b48c6500a6354e60405160405180910390a3600190509392505050565b6000600460008373ffffffffffffffffffffffffffffffffffffffff1673ffffffffffffffffffffffffffffffffffffffff168152602001908152602001600020549050919050565b610ea16110d0565b610f13576040517f08c379a00000000000000000000000000000000000000000000000000000000081526004018080602001828103825260208152602001807f4f776e61626c653a2063616c6c6572206973206e6f7420746865206f776e657281525060200191505060405180910390fd5b600073ffffffffffffffffffffffffffffffffffffffff166000809054906101000a900473ffffffffffffffffffffffffffffffffffffffff1673ffffffffffffffffffffffffffffffffffffffff167f8be0079c531659141344cd1fd0a4f28419497f9722a3daafe3b4186f6b6457e060405160405180910390a360008060006101000a81548173ffffffffffffffffffffffffffffffffffffffff021916908373ffffffffffffffffffffffffffffffffffffffff160217905550565b6000806000806000610fe387611595565b9350935093509350801561104657600061101a600b5461100c878a611eaa90919063ffffffff16565b611f3090919063ffffffff16565b90508381101561102c57839050611039565b82811115611038578290505b5b80955050505050506110a1565b6000611071600b546110636008548a611eaa90919063ffffffff16565b611f3090919063ffffffff16565b9050600954811015611087576009549050611098565b600a5481111561109757600a5490505b5b80955050505050505b92915050565b60008060009054906101000a900473ffffffffffffffffffffffffffffffffffffffff16905090565b60008060009054906101000a900473ffffffffffffffffffffffffffffffffffffffff1673ffffffffffffffffffffffffffffffffffffffff166111126116c3565b73ffffffffffffffffffffffffffffffffffffffff1614905090565b606060028054600181600116156101000203166002900480601f0160208091040260200160405190810160405280929190818152602001828054600181600116156101000203166002900480156111c65780601f1061119b576101008083540402835291602001916111c6565b820191906000526020600020905b8154815290600101906020018083116111a957829003601f168201915b5050505050905090565b6000600b54905090565b6000600c60009054906101000a900473ffffffffffffffffffffffffffffffffffffffff16905090565b60006112c76112116116c3565b846112c28560405180606001604052806025815260200161235d602591396006600061123b6116c3565b73ffffffffffffffffffffffffffffffffffffffff1673ffffffffffffffffffffffffffffffffffffffff16815260200190815260200160002060008a73ffffffffffffffffffffffffffffffffffffffff1673ffffffffffffffffffffffffffffffffffffffff16815260200190815260200160002054611d629092919063ffffffff16565b6116cb565b6001905092915050565b60006112e56112de6116c3565b84846118c2565b6001905092915050565b60006112f96110d0565b61136b576040517f08c379a00000000000000000000000000000000000000000000000000000000081526004018080602001828103825260208152602001807f4f776e61626c653a2063616c6c6572206973206e6f7420746865206f776e657281525060200191505060405180910390fd5b6113736121ce565b6040518060800160405280878152602001868152602001858152602001841515815250905080600560008973ffffffffffffffffffffffffffffffffffffffff1673ffffffffffffffffffffffffffffffffffffffff16815260200190815260200160002060008201518160000155602082015181600101556040820151816002015560608201518160030160006101000a81548160ff021916908315150217905550905050858773ffffffffffffffffffffffffffffffffffffffff167f4911f2dd30c062d375fa4a40dff10ef4d0a8f9334fb6752076e27747f3ba2e888787604051808381526020018281526020019250505060405180910390a3600191505095945050505050565b6000600660008473ffffffffffffffffffffffffffffffffffffffff1673ffffffffffffffffffffffffffffffffffffffff16815260200190815260200160002060008373ffffffffffffffffffffffffffffffffffffffff1673ffffffffffffffffffffffffffffffffffffffff16815260200190815260200160002054905092915050565b6000600854905090565b6115176110d0565b611589576040517f08c379a00000000000000000000000000000000000000000000000000000000081526004018080602001828103825260208152602001807f4f776e61626c653a2063616c6c6572206973206e6f7420746865206f776e657281525060200191505060405180910390fd5b61159281611f7a565b50565b600080600080600560008673ffffffffffffffffffffffffffffffffffffffff1673ffffffffffffffffffffffffffffffffffffffff16815260200190815260200160002060000154600560008773ffffffffffffffffffffffffffffffffffffffff1673ffffffffffffffffffffffffffffffffffffffff16815260200190815260200160002060010154600560008873ffffffffffffffffffffffffffffffffffffffff1673ffffffffffffffffffffffffffffffffffffffff16815260200190815260200160002060020154600560008973ffffffffffffffffffffffffffffffffffffffff1673ffffffffffffffffffffffffffffffffffffffff16815260200190815260200160002060030160009054906101000a900460ff1693509350935093509193509193565b600033905090565b600073ffffffffffffffffffffffffffffffffffffffff168373ffffffffffffffffffffffffffffffffffffffff161415611751576040517f08c379a00000000000000000000000000000000000000000000000000000000081526004018080602001828103825260248152602001806123396024913960400191505060405180910390fd5b600073ffffffffffffffffffffffffffffffffffffffff168273ffffffffffffffffffffffffffffffffffffffff1614156117d7576040517f08c379a00000000000000000000000000000000000000000000000000000000081526004018080602001828103825260228152602001806122706022913960400191505060405180910390fd5b80600660008573ffffffffffffffffffffffffffffffffffffffff1673ffffffffffffffffffffffffffffffffffffffff16815260200190815260200160002060008473ffffffffffffffffffffffffffffffffffffffff1673ffffffffffffffffffffffffffffffffffffffff168152602001908152602001600020819055508173ffffffffffffffffffffffffffffffffffffffff168373ffffffffffffffffffffffffffffffffffffffff167f8c5be1e5ebec7d5bd14f71427d1e84f3dd0314c0f7b2291e5b200ac8c7c3b925836040518082815260200191505060405180910390a3505050565b600073ffffffffffffffffffffffffffffffffffffffff168373ffffffffffffffffffffffffffffffffffffffff161415611948576040517f08c379a00000000000000000000000000000000000000000000000000000000081526004018080602001828103825260288152602001806122226028913960400191505060405180910390fd5b600073ffffffffffffffffffffffffffffffffffffffff168273ffffffffffffffffffffffffffffffffffffffff1614156119ce576040517f08c379a00000000000000000000000000000000000000000000000000000000081526004018080602001828103825260268152602001806122ca6026913960400191505060405180910390fd5b60006119da8483610fd2565b905080821015611a52576040517f08c379a000000000000000000000000000000000000000000000000000000000815260040180806020018281038252601e8152602001807f45524332304665653a20616d6f756e74206c657373207468656e20666565000081525060200191505060405180910390fd5b611abe826040518060600160405280602981526020016121f960299139600460008873ffffffffffffffffffffffffffffffffffffffff1673ffffffffffffffffffffffffffffffffffffffff16815260200190815260200160002054611d629092919063ffffffff16565b600460008673ffffffffffffffffffffffffffffffffffffffff1673ffffffffffffffffffffffffffffffffffffffff168152602001908152602001600020819055506000611b1682846120be90919063ffffffff16565b9050611b6a81600460008773ffffffffffffffffffffffffffffffffffffffff1673ffffffffffffffffffffffffffffffffffffffff16815260200190815260200160002054611e2290919063ffffffff16565b600460008673ffffffffffffffffffffffffffffffffffffffff1673ffffffffffffffffffffffffffffffffffffffff168152602001908152602001600020819055508373ffffffffffffffffffffffffffffffffffffffff168573ffffffffffffffffffffffffffffffffffffffff167fddf252ad1be2c89b69c2b068fc378daa952ba7f163c4a11628f55a4df523b3ef836040518082815260200191505060405180910390a36000821115611d5b57611c8f8260046000600c60009054906101000a900473ffffffffffffffffffffffffffffffffffffffff1673ffffffffffffffffffffffffffffffffffffffff1673ffffffffffffffffffffffffffffffffffffffff16815260200190815260200160002054611e2290919063ffffffff16565b60046000600c60009054906101000a900473ffffffffffffffffffffffffffffffffffffffff1673ffffffffffffffffffffffffffffffffffffffff1673ffffffffffffffffffffffffffffffffffffffff1681526020019081526020016000208190555081600c60009054906101000a900473ffffffffffffffffffffffffffffffffffffffff1673ffffffffffffffffffffffffffffffffffffffff167f7bd3aa7d673767f759ebf216e7f6c12844986c661ae6e0f1d988cf7eb7394d1d60405160405180910390a35b5050505050565b6000838311158290611e0f576040517f08c379a00000000000000000000000000000000000000000000000000000000081526004018080602001828103825283818151815260200191508051906020019080838360005b83811015611dd4578082015181840152602081019050611db9565b50505050905090810190601f168015611e015780820380516001836020036101000a031916815260200191505b509250505060405180910390fd5b5060008385039050809150509392505050565b600080828401905083811015611ea0576040517f08c379a000000000000000000000000000000000000000000000000000000000815260040180806020018281038252601b8152602001807f536166654d6174683a206164646974696f6e206f766572666c6f77000000000081525060200191505060405180910390fd5b8091505092915050565b600080831415611ebd5760009050611f2a565b6000828402905082848281611ece57fe5b0414611f25576040517f08c379a00000000000000000000000000000000000000000000000000000000081526004018080602001828103825260218152602001806122f06021913960400191505060405180910390fd5b809150505b92915050565b6000611f7283836040518060400160405280601a81526020017f536166654d6174683a206469766973696f6e206279207a65726f000000000000815250612108565b905092915050565b600073ffffffffffffffffffffffffffffffffffffffff168173ffffffffffffffffffffffffffffffffffffffff161415612000576040517f08c379a000000000000000000000000000000000000000000000000000000000815260040180806020018281038252602681526020018061224a6026913960400191505060405180910390fd5b8073ffffffffffffffffffffffffffffffffffffffff166000809054906101000a900473ffffffffffffffffffffffffffffffffffffffff1673ffffffffffffffffffffffffffffffffffffffff167f8be0079c531659141344cd1fd0a4f28419497f9722a3daafe3b4186f6b6457e060405160405180910390a3806000806101000a81548173ffffffffffffffffffffffffffffffffffffffff021916908373ffffffffffffffffffffffffffffffffffffffff16021790555050565b600061210083836040518060400160405280601e81526020017f536166654d6174683a207375627472616374696f6e206f766572666c6f770000815250611d62565b905092915050565b600080831182906121b4576040517f08c379a00000000000000000000000000000000000000000000000000000000081526004018080602001828103825283818151815260200191508051906020019080838360005b8381101561217957808201518184015260208101905061215e565b50505050905090810190601f1680156121a65780820380516001836020036101000a031916815260200191505b509250505060405180910390fd5b5060008385816121c057fe5b049050809150509392505050565b6040518060800160405280600081526020016000815260200160008152602001600015158152509056fe45524332304665653a207472616e7366657220616d6f756e7420657863656564732062616c616e636545524332304665653a207472616e736665722066726f6d20746865207a65726f20616464726573734f776e61626c653a206e6577206f776e657220697320746865207a65726f206164647265737345524332303a20617070726f766520746f20746865207a65726f206164647265737353657446656573436f6c6c6563746f723a206e6577206665657320636f6c6c6563746f7220697320746865207a65726f206164647265737345524332304665653a207472616e7366657220746f20746865207a65726f2061646472657373536166654d6174683a206d756c7469706c69636174696f6e206f766572666c6f7745524332303a207472616e7366657220616d6f756e74206578636565647320616c6c6f77616e636545524332303a20617070726f76652066726f6d20746865207a65726f206164647265737345524332303a2064656372656173656420616c6c6f77616e63652062656c6f77207a65726fa265627a7a723158203c4bd6f298c310d3bd71e2999d0109fc0694916ef92ca935f24cea839611284c64736f6c63430005100032",
  "source": "pragma solidity ^0.5.0;\n\nimport \"../../GSN/Context.sol\";\nimport \"../../math/SafeMath.sol\";\nimport \"../../ownership/Ownable.sol\";\nimport \"./IERC20.sol\";\nimport \"./IERC20Fee.sol\";\nimport \"./ERC20Detailed.sol\";\n\n/**\n * @dev Implementation of the {IERC20Fee} interface.\n*/\ncontract ERC20Fee is Context, Ownable, IERC20, IERC20Fee, ERC20Detailed {\n    using SafeMath for uint256;\n\n    struct SpecialFee {\n        uint256 basisPointsRate;\n        uint256 minimumFee;\n        uint256 maximumFee;\n        bool isActive;\n    }\n\n    mapping(address => uint256) private _balances;\n    mapping(address => SpecialFee) private _fees;\n    mapping(address => mapping(address => uint256)) private _allowances;\n\n    uint256 private _totalSupply;\n\n    /**\n     * @dev Aditional variables for use if deposit fees\n     * ever became necessary.\n     */\n    uint256 private _basisPointsRate;\n    uint256 private _minimumFee;\n    uint256 private _maximumFee;\n    uint256 private _denominator;\n\n    address private _feesCollector;\n\n    /**\n     * @dev Sets the values for `name`, `symbol`, `decimals`,\n     * `_basisPointsRate` and `_maximumFee`. \n     *\n     * `name`, `symbol`, `decimals` values are immutable: \n     * they can only be set once during construction.\n     */\n    constructor(string memory name, string memory symbol, uint8 decimals)\n        public\n        ERC20Detailed(name, symbol, decimals)\n    {\n        _basisPointsRate = 0;\n        _maximumFee = 0;\n        _feesCollector = _msgSender();\n        _denominator = 10000;\n    }\n\n    /**\n     * @dev See {IERC20-totalSupply}.\n     */\n    function totalSupply() public view returns (uint256) {\n        return _totalSupply;\n    }\n\n    /**\n     * @dev See {IERC20-balanceOf}.\n     */\n    function balanceOf(address account) public view returns (uint256) {\n        return _balances[account];\n    }\n\n    /**\n     * @dev See {IERC20Fee-basisPointsRate}.\n     */\n    function basisPointsRate() public view returns (uint256) {\n        return _basisPointsRate;\n    }\n\n    /**\n     * @dev See {IERC20Fee-minimumFee}.\n     */\n    function minimumFee() public view returns (uint256) {\n        return _minimumFee;\n    }\n\n    /**\n     * @dev See {IERC20Fee-maximumFee}.\n     */\n    function maximumFee() public view returns (uint256) {\n        return _maximumFee;\n    }\n\n    /**\n     * @dev See {IERC20Fee-denominator}.\n     */\n    function denominator() public view returns (uint256) {\n        return _denominator;\n    }\n\n    /**\n     * @dev See {IERC20Fee-feesCollector}.\n     */\n    function feesCollector() public view returns (address) {\n        return _feesCollector;\n    }\n\n    /**\n     * @dev See {IERC20-getSpecialFeesForAccount}.\n     */\n    function fees(address account)\n        public\n        view\n        returns (uint256, uint256, uint256, bool)\n    {\n        return (\n            _fees[account].basisPointsRate,\n            _fees[account].minimumFee,\n            _fees[account].maximumFee,\n            _fees[account].isActive\n        );\n    }\n\n    /**\n     * @dev See {IERC20Fee-setFeesCollector}.\n     */\n    function setFeesCollector(address newFeesCollector)\n        public\n        onlyOwner\n        returns (bool)\n    {\n        require(\n            newFeesCollector != address(0),\n            \"SetFeesCollector: new fees collector is the zero address\"\n        );\n        emit FeesCollector(_feesCollector, newFeesCollector);\n        _feesCollector = newFeesCollector;\n        return true;\n    }\n\n    /**\n     * @dev See {IERC20Fee-setParams}.\n     */\n    function setParams(\n        uint256 newBasisPoints,\n        uint256 newMinFee,\n        uint256 newMaxFee\n    ) external onlyOwner returns (bool) {\n        _basisPointsRate = newBasisPoints;\n        _minimumFee = newMinFee;\n        _maximumFee = newMaxFee;\n        emit Params(_basisPointsRate, _maximumFee);\n        return true;\n    }\n\n    /**\n     * @dev See {IERC20Fee-setSpecialParams}.\n     */\n    function setSpecialParams(\n        address account,\n        uint256 newBasisPoints,\n        uint256 newMinFee,\n        uint256 newMaxFee,\n        bool state\n    ) external onlyOwner returns (bool) {\n        SpecialFee memory newSpecialParams = SpecialFee({\n            basisPointsRate: newBasisPoints,\n            minimumFee: newMinFee,\n            maximumFee: newMaxFee,\n            isActive: state\n        });\n\n        _fees[account] = newSpecialParams;\n        emit SpecialParams(account, newBasisPoints, newMinFee, newMaxFee);\n        return true;\n    }\n\n    /**\n     * @dev See {IERC20Fee-calculateFee}.\n     */\n    function calculateFee(address account, uint256 amount)\n        public\n        returns (uint256)\n    {\n        (uint256 basisPoints, uint256 minFee, uint256 maxFee, bool active) = fees(\n            account\n        );\n\n        if (active) {\n            uint256 fee = (amount.mul(basisPoints)).div(_denominator);\n\n            if (fee < minFee) fee = minFee;\n            else if (fee > maxFee) fee = maxFee;\n\n            return fee;\n        }\n\n        uint256 fee = (amount.mul(_basisPointsRate)).div(_denominator);\n\n        if (fee < _minimumFee) fee = _minimumFee;\n        else if (fee > _maximumFee) fee = _maximumFee;\n\n        return fee;\n    }\n\n    /**\n     * @dev See {IERC20-transfer}.\n     *\n     * Requirements:\n     *\n     * - `recipient` cannot be the zero address.\n     * - the caller must have a balance of at least `amount`.\n     */\n    function transfer(address recipient, uint256 amount) public returns (bool) {\n        _transfer(_msgSender(), recipient, amount);\n        return true;\n    }\n\n    /**\n     * @dev See {IERC20-allowance}.\n     */\n    function allowance(address owner, address spender)\n        public\n        view\n        returns (uint256)\n    {\n        return _allowances[owner][spender];\n    }\n\n    /**\n     * @dev See {IERC20-approve}.\n     *\n     * Requirements:\n     *\n     * - `spender` cannot be the zero address.\n     */\n    function approve(address spender, uint256 amount) public returns (bool) {\n        _approve(_msgSender(), spender, amount);\n        return true;\n    }\n\n    /**\n     * @dev See {IERC20-transferFrom}.\n     *\n     * Emits an {Approval} event indicating the updated allowance. This is not\n     * required by the EIP. See the note at the beginning of {ERC20};\n     *\n     * Requirements:\n     * - `sender` and `recipient` cannot be the zero address.\n     * - `sender` must have a balance of at least `amount`.\n     * - the caller must have allowance for `sender`'s tokens of at least\n     * `amount`.\n     */\n    function transferFrom(address sender, address recipient, uint256 amount)\n        public\n        returns (bool)\n    {\n        _transfer(sender, recipient, amount);\n        _approve(\n            sender,\n            _msgSender(),\n            _allowances[sender][_msgSender()].sub(\n                amount,\n                \"ERC20: transfer amount exceeds allowance\"\n            )\n        );\n        return true;\n    }\n\n    /**\n     * @dev Atomically increases the allowance granted to `spender` by the caller.\n     *\n     * This is an alternative to {approve} that can be used as a mitigation for\n     * problems described in {IERC20-approve}.\n     *\n     * Emits an {Approval} event indicating the updated allowance.\n     *\n     * Requirements:\n     *\n     * - `spender` cannot be the zero address.\n     */\n    function increaseAllowance(address spender, uint256 addedValue)\n        public\n        returns (bool)\n    {\n        _approve(\n            _msgSender(),\n            spender,\n            _allowances[_msgSender()][spender].add(addedValue)\n        );\n        return true;\n    }\n\n    /**\n     * @dev Atomically decreases the allowance granted to `spender` by the caller.\n     *\n     * This is an alternative to {approve} that can be used as a mitigation for\n     * problems described in {IERC20-approve}.\n     *\n     * Emits an {Approval} event indicating the updated allowance.\n     *\n     * Requirements:\n     *\n     * - `spender` cannot be the zero address.\n     * - `spender` must have allowance for the caller of at least\n     * `subtractedValue`.\n     */\n    function decreaseAllowance(address spender, uint256 subtractedValue)\n        public\n        returns (bool)\n    {\n        _approve(\n            _msgSender(),\n            spender,\n            _allowances[_msgSender()][spender].sub(\n                subtractedValue,\n                \"ERC20: decreased allowance below zero\"\n            )\n        );\n        return true;\n    }\n\n    /**\n     * @dev Moves tokens `amount` from `sender` to `recipient`.\n     *\n     * This is internal function is equivalent to {transfer}, and can be used to\n     * e.g. implement automatic token fees, slashing mechanisms, etc.\n     *\n     * Emits a {Transfer} event.\n     *\n     * Requirements:\n     *\n     * - `sender` cannot be the zero address.\n     * - `recipient` cannot be the zero address.\n     * - `sender` must have a balance of at least `amount`.\n     */\n    function _transfer(address sender, address recipient, uint256 amount)\n        internal\n    {\n        require(\n            sender != address(0),\n            \"ERC20Fee: transfer from the zero address\"\n        );\n        require(\n            recipient != address(0),\n            \"ERC20Fee: transfer to the zero address\"\n        );\n\n        uint256 fee = calculateFee(sender, amount);\n\n        require(amount >= fee, \"ERC20Fee: amount less then fee\");\n\n        _balances[sender] = _balances[sender].sub(\n            amount,\n            \"ERC20Fee: transfer amount exceeds balance\"\n        );\n\n        uint256 sendAmount = amount.sub(fee);\n\n        _balances[recipient] = _balances[recipient].add(sendAmount);\n        emit Transfer(sender, recipient, sendAmount);\n\n        if (fee > 0) {\n            _balances[_feesCollector] = _balances[_feesCollector].add(fee);\n            emit Fee(_feesCollector, fee);\n        }\n\n    }\n\n    /** @dev Creates `amount` tokens and assigns them to `account`, increasing\n     * the total supply.\n     *\n     * Emits a {Transfer} event with `from` set to the zero address.\n     *\n     * Requirements\n     *\n     * - `to` cannot be the zero address.\n     */\n    function _mint(address account, uint256 amount) internal {\n        require(account != address(0), \"ERC20: mint to the zero address\");\n\n        _totalSupply = _totalSupply.add(amount);\n        _balances[account] = _balances[account].add(amount);\n        emit Transfer(address(0), account, amount);\n    }\n\n    /**\n     * @dev Destroys `amount` tokens from `account`, reducing the\n     * total supply.\n     *\n     * Emits a {Transfer} event with `to` set to the zero address.\n     *\n     * Requirements\n     *\n     * - `account` cannot be the zero address.\n     * - `account` must have at least `amount` tokens.\n     */\n    function _burn(address account, uint256 amount) internal {\n        require(account != address(0), \"ERC20: burn from the zero address\");\n\n        _balances[account] = _balances[account].sub(\n            amount,\n            \"ERC20: burn amount exceeds balance\"\n        );\n        _totalSupply = _totalSupply.sub(amount);\n        emit Transfer(account, address(0), amount);\n    }\n\n    /**\n     * @dev Sets `amount` as the allowance of `spender` over the `owner`s tokens.\n     *\n     * This is internal function is equivalent to `approve`, and can be used to\n     * e.g. set automatic allowances for certain subsystems, etc.\n     *\n     * Emits an {Approval} event.\n     *\n     * Requirements:\n     *\n     * - `owner` cannot be the zero address.\n     * - `spender` cannot be the zero address.\n     */\n    function _approve(address owner, address spender, uint256 amount) internal {\n        require(owner != address(0), \"ERC20: approve from the zero address\");\n        require(spender != address(0), \"ERC20: approve to the zero address\");\n\n        _allowances[owner][spender] = amount;\n        emit Approval(owner, spender, amount);\n    }\n\n    /**\n     * @dev Destroys `amount` tokens from `account`.`amount` is then deducted\n     * from the caller's allowance.\n     *\n     * See {_burn} and {_approve}.\n     */\n    function _burnFrom(address account, uint256 amount) internal {\n        _burn(account, amount);\n        _approve(\n            account,\n            _msgSender(),\n            _allowances[account][_msgSender()].sub(\n                amount,\n                \"ERC20: burn amount exceeds allowance\"\n            )\n        );\n    }\n}\n",
  "sourcePath": "/Users/ilya/Documents/GitHub/stablecoin-solidity/contracts/@openzeppelin/contracts/token/ERC20/ERC20Fee.sol",
  "compiler": {
    "name": "solc",
    "version": "0.5.16+commit.9c3226ce.Emscripten.clang"
  },
  "schemaVersion": "3.0.13",
  "updatedAt": "2020-02-15T16:28:44.215Z",
  "devdoc": {
    "details": "Implementation of the {IERC20Fee} interface.",
    "methods": {
      "allowance(address,address)": {
        "details": "See {IERC20-allowance}."
      },
      "approve(address,uint256)": {
        "details": "See {IERC20-approve}.     * Requirements:     * - `spender` cannot be the zero address."
      },
      "balanceOf(address)": {
        "details": "See {IERC20-balanceOf}."
      },
      "basisPointsRate()": {
        "details": "See {IERC20Fee-basisPointsRate}."
      },
      "calculateFee(address,uint256)": {
        "details": "See {IERC20Fee-calculateFee}."
      },
      "constructor": {
        "details": "Sets the values for `name`, `symbol`, `decimals`, `_basisPointsRate` and `_maximumFee`.      * `name`, `symbol`, `decimals` values are immutable:  they can only be set once during construction."
      },
      "decimals()": {
        "details": "Returns the number of decimals used to get its user representation. For example, if `decimals` equals `2`, a balance of `505` tokens should be displayed to a user as `5,05` (`505 / 10 ** 2`).     * Tokens usually opt for a value of 18, imitating the relationship between Ether and Wei.     * NOTE: This information is only used for _display_ purposes: it in no way affects any of the arithmetic of the contract, including {IERC20-balanceOf} and {IERC20-transfer}."
      },
      "decreaseAllowance(address,uint256)": {
        "details": "Atomically decreases the allowance granted to `spender` by the caller.     * This is an alternative to {approve} that can be used as a mitigation for problems described in {IERC20-approve}.     * Emits an {Approval} event indicating the updated allowance.     * Requirements:     * - `spender` cannot be the zero address. - `spender` must have allowance for the caller of at least `subtractedValue`."
      },
      "denominator()": {
        "details": "See {IERC20Fee-denominator}."
      },
      "fees(address)": {
        "details": "See {IERC20-getSpecialFeesForAccount}."
      },
      "feesCollector()": {
        "details": "See {IERC20Fee-feesCollector}."
      },
      "increaseAllowance(address,uint256)": {
        "details": "Atomically increases the allowance granted to `spender` by the caller.     * This is an alternative to {approve} that can be used as a mitigation for problems described in {IERC20-approve}.     * Emits an {Approval} event indicating the updated allowance.     * Requirements:     * - `spender` cannot be the zero address."
      },
      "isOwner()": {
        "details": "Returns true if the caller is the current owner."
      },
      "maximumFee()": {
        "details": "See {IERC20Fee-maximumFee}."
      },
      "minimumFee()": {
        "details": "See {IERC20Fee-minimumFee}."
      },
      "name()": {
        "details": "Returns the name of the token."
      },
      "owner()": {
        "details": "Returns the address of the current owner."
      },
      "renounceOwnership()": {
        "details": "Leaves the contract without owner. It will not be possible to call `onlyOwner` functions anymore. Can only be called by the current owner.     * NOTE: Renouncing ownership will leave the contract without an owner, thereby removing any functionality that is only available to the owner."
      },
      "setFeesCollector(address)": {
        "details": "See {IERC20Fee-setFeesCollector}."
      },
      "setParams(uint256,uint256,uint256)": {
        "details": "See {IERC20Fee-setParams}."
      },
      "setSpecialParams(address,uint256,uint256,uint256,bool)": {
        "details": "See {IERC20Fee-setSpecialParams}."
      },
      "symbol()": {
        "details": "Returns the symbol of the token, usually a shorter version of the name."
      },
      "totalSupply()": {
        "details": "See {IERC20-totalSupply}."
      },
      "transfer(address,uint256)": {
        "details": "See {IERC20-transfer}.     * Requirements:     * - `recipient` cannot be the zero address. - the caller must have a balance of at least `amount`."
      },
      "transferFrom(address,address,uint256)": {
        "details": "See {IERC20-transferFrom}.     * Emits an {Approval} event indicating the updated allowance. This is not required by the EIP. See the note at the beginning of {ERC20};     * Requirements: - `sender` and `recipient` cannot be the zero address. - `sender` must have a balance of at least `amount`. - the caller must have allowance for `sender`'s tokens of at least `amount`."
      },
      "transferOwnership(address)": {
        "details": "Transfers ownership of the contract to a new account (`newOwner`). Can only be called by the current owner."
      }
    }
  },
  "userdoc": {
    "methods": {}
  }
}