{
    "contractName": "StableCoin",
    "abi": [
        {
            "inputs": [
                {
                    "internalType": "string",
                    "name": "name",
                    "type": "string"
                },
                {
                    "internalType": "string",
                    "name": "symbol",
                    "type": "string"
                },
                {
                    "internalType": "uint8",
                    "name": "decimals",
                    "type": "uint8"
                }
            ],
            "payable": false,
            "stateMutability": "nonpayable",
            "type": "constructor"
        },
        {
            "anonymous": false,
            "inputs": [
                {
                    "indexed": true,
                    "internalType": "address",
                    "name": "owner",
                    "type": "address"
                },
                {
                    "indexed": true,
                    "internalType": "address",
                    "name": "spender",
                    "type": "address"
                },
                {
                    "indexed": false,
                    "internalType": "uint256",
                    "name": "value",
                    "type": "uint256"
                }
            ],
            "name": "Approval",
            "type": "event"
        },
        {
            "anonymous": false,
            "inputs": [
                {
                    "indexed": true,
                    "internalType": "address",
                    "name": "account",
                    "type": "address"
                }
            ],
            "name": "BurnerAdded",
            "type": "event"
        },
        {
            "anonymous": false,
            "inputs": [
                {
                    "indexed": true,
                    "internalType": "address",
                    "name": "account",
                    "type": "address"
                }
            ],
            "name": "BurnerRemoved",
            "type": "event"
        },
        {
            "anonymous": false,
            "inputs": [
                {
                    "indexed": true,
                    "internalType": "address",
                    "name": "_feesCollector",
                    "type": "address"
                },
                {
                    "indexed": true,
                    "internalType": "uint256",
                    "name": "fee",
                    "type": "uint256"
                }
            ],
            "name": "Fee",
            "type": "event"
        },
        {
            "anonymous": false,
            "inputs": [
                {
                    "indexed": true,
                    "internalType": "address",
                    "name": "_feesCollector",
                    "type": "address"
                },
                {
                    "indexed": true,
                    "internalType": "address",
                    "name": "newFeesCollector",
                    "type": "address"
                }
            ],
            "name": "FeesCollector",
            "type": "event"
        },
        {
            "anonymous": false,
            "inputs": [
                {
                    "indexed": true,
                    "internalType": "address",
                    "name": "account",
                    "type": "address"
                }
            ],
            "name": "MinterAdded",
            "type": "event"
        },
        {
            "anonymous": false,
            "inputs": [
                {
                    "indexed": true,
                    "internalType": "address",
                    "name": "account",
                    "type": "address"
                }
            ],
            "name": "MinterRemoved",
            "type": "event"
        },
        {
            "anonymous": false,
            "inputs": [
                {
                    "indexed": true,
                    "internalType": "address",
                    "name": "previousOwner",
                    "type": "address"
                },
                {
                    "indexed": true,
                    "internalType": "address",
                    "name": "newOwner",
                    "type": "address"
                }
            ],
            "name": "OwnershipTransferred",
            "type": "event"
        },
        {
            "anonymous": false,
            "inputs": [
                {
                    "indexed": true,
                    "internalType": "uint256",
                    "name": "newBasisPoints",
                    "type": "uint256"
                },
                {
                    "indexed": true,
                    "internalType": "uint256",
                    "name": "newMinFee",
                    "type": "uint256"
                },
                {
                    "indexed": true,
                    "internalType": "uint256",
                    "name": "newMaxFee",
                    "type": "uint256"
                }
            ],
            "name": "Params",
            "type": "event"
        },
        {
            "anonymous": false,
            "inputs": [
                {
                    "indexed": true,
                    "internalType": "address",
                    "name": "account",
                    "type": "address"
                },
                {
                    "indexed": true,
                    "internalType": "uint256",
                    "name": "newBasisPoints",
                    "type": "uint256"
                },
                {
                    "indexed": false,
                    "internalType": "uint256",
                    "name": "newMinFee",
                    "type": "uint256"
                },
                {
                    "indexed": false,
                    "internalType": "uint256",
                    "name": "newMaxFee",
                    "type": "uint256"
                }
            ],
            "name": "SpecialParams",
            "type": "event"
        },
        {
            "anonymous": false,
            "inputs": [
                {
                    "indexed": true,
                    "internalType": "address",
                    "name": "from",
                    "type": "address"
                },
                {
                    "indexed": true,
                    "internalType": "address",
                    "name": "to",
                    "type": "address"
                },
                {
                    "indexed": false,
                    "internalType": "uint256",
                    "name": "value",
                    "type": "uint256"
                }
            ],
            "name": "Transfer",
            "type": "event"
        },
        {
            "constant": true,
            "inputs": [
                {
                    "internalType": "address",
                    "name": "owner",
                    "type": "address"
                },
                {
                    "internalType": "address",
                    "name": "spender",
                    "type": "address"
                }
            ],
            "name": "allowance",
            "outputs": [
                {
                    "internalType": "uint256",
                    "name": "",
                    "type": "uint256"
                }
            ],
            "payable": false,
            "stateMutability": "view",
            "type": "function"
        },
        {
            "constant": false,
            "inputs": [
                {
                    "internalType": "address",
                    "name": "spender",
                    "type": "address"
                },
                {
                    "internalType": "uint256",
                    "name": "amount",
                    "type": "uint256"
                }
            ],
            "name": "approve",
            "outputs": [
                {
                    "internalType": "bool",
                    "name": "",
                    "type": "bool"
                }
            ],
            "payable": false,
            "stateMutability": "nonpayable",
            "type": "function"
        },
        {
            "constant": true,
            "inputs": [
                {
                    "internalType": "address",
                    "name": "account",
                    "type": "address"
                }
            ],
            "name": "balanceOf",
            "outputs": [
                {
                    "internalType": "uint256",
                    "name": "",
                    "type": "uint256"
                }
            ],
            "payable": false,
            "stateMutability": "view",
            "type": "function"
        },
        {
            "constant": true,
            "inputs": [],
            "name": "basisPointsRate",
            "outputs": [
                {
                    "internalType": "uint256",
                    "name": "",
                    "type": "uint256"
                }
            ],
            "payable": false,
            "stateMutability": "view",
            "type": "function"
        },
        {
            "constant": true,
            "inputs": [],
            "name": "decimals",
            "outputs": [
                {
                    "internalType": "uint8",
                    "name": "",
                    "type": "uint8"
                }
            ],
            "payable": false,
            "stateMutability": "view",
            "type": "function"
        },
        {
            "constant": false,
            "inputs": [
                {
                    "internalType": "address",
                    "name": "spender",
                    "type": "address"
                },
                {
                    "internalType": "uint256",
                    "name": "subtractedValue",
                    "type": "uint256"
                }
            ],
            "name": "decreaseAllowance",
            "outputs": [
                {
                    "internalType": "bool",
                    "name": "",
                    "type": "bool"
                }
            ],
            "payable": false,
            "stateMutability": "nonpayable",
            "type": "function"
        },
        {
            "constant": true,
            "inputs": [],
            "name": "denominator",
            "outputs": [
                {
                    "internalType": "uint256",
                    "name": "",
                    "type": "uint256"
                }
            ],
            "payable": false,
            "stateMutability": "view",
            "type": "function"
        },
        {
            "constant": true,
            "inputs": [
                {
                    "internalType": "address",
                    "name": "account",
                    "type": "address"
                }
            ],
            "name": "fees",
            "outputs": [
                {
                    "internalType": "uint256",
                    "name": "",
                    "type": "uint256"
                },
                {
                    "internalType": "uint256",
                    "name": "",
                    "type": "uint256"
                },
                {
                    "internalType": "uint256",
                    "name": "",
                    "type": "uint256"
                },
                {
                    "internalType": "bool",
                    "name": "",
                    "type": "bool"
                }
            ],
            "payable": false,
            "stateMutability": "view",
            "type": "function"
        },
        {
            "constant": true,
            "inputs": [],
            "name": "feesCollector",
            "outputs": [
                {
                    "internalType": "address",
                    "name": "",
                    "type": "address"
                }
            ],
            "payable": false,
            "stateMutability": "view",
            "type": "function"
        },
        {
            "constant": false,
            "inputs": [
                {
                    "internalType": "address",
                    "name": "spender",
                    "type": "address"
                },
                {
                    "internalType": "uint256",
                    "name": "addedValue",
                    "type": "uint256"
                }
            ],
            "name": "increaseAllowance",
            "outputs": [
                {
                    "internalType": "bool",
                    "name": "",
                    "type": "bool"
                }
            ],
            "payable": false,
            "stateMutability": "nonpayable",
            "type": "function"
        },
        {
            "constant": true,
            "inputs": [],
            "name": "isOwner",
            "outputs": [
                {
                    "internalType": "bool",
                    "name": "",
                    "type": "bool"
                }
            ],
            "payable": false,
            "stateMutability": "view",
            "type": "function"
        },
        {
            "constant": true,
            "inputs": [],
            "name": "maximumFee",
            "outputs": [
                {
                    "internalType": "uint256",
                    "name": "",
                    "type": "uint256"
                }
            ],
            "payable": false,
            "stateMutability": "view",
            "type": "function"
        },
        {
            "constant": true,
            "inputs": [],
            "name": "minimumFee",
            "outputs": [
                {
                    "internalType": "uint256",
                    "name": "",
                    "type": "uint256"
                }
            ],
            "payable": false,
            "stateMutability": "view",
            "type": "function"
        },
        {
            "constant": true,
            "inputs": [],
            "name": "name",
            "outputs": [
                {
                    "internalType": "string",
                    "name": "",
                    "type": "string"
                }
            ],
            "payable": false,
            "stateMutability": "view",
            "type": "function"
        },
        {
            "constant": true,
            "inputs": [],
            "name": "owner",
            "outputs": [
                {
                    "internalType": "address",
                    "name": "",
                    "type": "address"
                }
            ],
            "payable": false,
            "stateMutability": "view",
            "type": "function"
        },
        {
            "constant": false,
            "inputs": [],
            "name": "renounceOwnership",
            "outputs": [],
            "payable": false,
            "stateMutability": "nonpayable",
            "type": "function"
        },
        {
            "constant": false,
            "inputs": [
                {
                    "internalType": "address",
                    "name": "newFeesCollector",
                    "type": "address"
                }
            ],
            "name": "setFeesCollector",
            "outputs": [
                {
                    "internalType": "bool",
                    "name": "",
                    "type": "bool"
                }
            ],
            "payable": false,
            "stateMutability": "nonpayable",
            "type": "function"
        },
        {
            "constant": false,
            "inputs": [
                {
                    "internalType": "uint256",
                    "name": "newBasisPoints",
                    "type": "uint256"
                },
                {
                    "internalType": "uint256",
                    "name": "newMinFee",
                    "type": "uint256"
                },
                {
                    "internalType": "uint256",
                    "name": "newMaxFee",
                    "type": "uint256"
                }
            ],
            "name": "setParams",
            "outputs": [
                {
                    "internalType": "bool",
                    "name": "",
                    "type": "bool"
                }
            ],
            "payable": false,
            "stateMutability": "nonpayable",
            "type": "function"
        },
        {
            "constant": false,
            "inputs": [
                {
                    "internalType": "address",
                    "name": "account",
                    "type": "address"
                },
                {
                    "internalType": "uint256",
                    "name": "newBasisPoints",
                    "type": "uint256"
                },
                {
                    "internalType": "uint256",
                    "name": "newMinFee",
                    "type": "uint256"
                },
                {
                    "internalType": "uint256",
                    "name": "newMaxFee",
                    "type": "uint256"
                },
                {
                    "internalType": "bool",
                    "name": "state",
                    "type": "bool"
                }
            ],
            "name": "setSpecialParams",
            "outputs": [
                {
                    "internalType": "bool",
                    "name": "",
                    "type": "bool"
                }
            ],
            "payable": false,
            "stateMutability": "nonpayable",
            "type": "function"
        },
        {
            "constant": true,
            "inputs": [],
            "name": "symbol",
            "outputs": [
                {
                    "internalType": "string",
                    "name": "",
                    "type": "string"
                }
            ],
            "payable": false,
            "stateMutability": "view",
            "type": "function"
        },
        {
            "constant": true,
            "inputs": [],
            "name": "totalSupply",
            "outputs": [
                {
                    "internalType": "uint256",
                    "name": "",
                    "type": "uint256"
                }
            ],
            "payable": false,
            "stateMutability": "view",
            "type": "function"
        },
        {
            "constant": false,
            "inputs": [
                {
                    "internalType": "address",
                    "name": "recipient",
                    "type": "address"
                },
                {
                    "internalType": "uint256",
                    "name": "amount",
                    "type": "uint256"
                }
            ],
            "name": "transfer",
            "outputs": [
                {
                    "internalType": "bool",
                    "name": "",
                    "type": "bool"
                }
            ],
            "payable": false,
            "stateMutability": "nonpayable",
            "type": "function"
        },
        {
            "constant": false,
            "inputs": [
                {
                    "internalType": "address",
                    "name": "sender",
                    "type": "address"
                },
                {
                    "internalType": "address",
                    "name": "recipient",
                    "type": "address"
                },
                {
                    "internalType": "uint256",
                    "name": "amount",
                    "type": "uint256"
                }
            ],
            "name": "transferFrom",
            "outputs": [
                {
                    "internalType": "bool",
                    "name": "",
                    "type": "bool"
                }
            ],
            "payable": false,
            "stateMutability": "nonpayable",
            "type": "function"
        },
        {
            "constant": false,
            "inputs": [
                {
                    "internalType": "address",
                    "name": "newOwner",
                    "type": "address"
                }
            ],
            "name": "transferOwnership",
            "outputs": [],
            "payable": false,
            "stateMutability": "nonpayable",
            "type": "function"
        },
        {
            "constant": false,
            "inputs": [
                {
                    "internalType": "address",
                    "name": "account",
                    "type": "address"
                }
            ],
            "name": "addMinter",
            "outputs": [],
            "payable": false,
            "stateMutability": "nonpayable",
            "type": "function"
        },
        {
            "constant": false,
            "inputs": [
                {
                    "internalType": "address",
                    "name": "account",
                    "type": "address"
                }
            ],
            "name": "addBurner",
            "outputs": [],
            "payable": false,
            "stateMutability": "nonpayable",
            "type": "function"
        },
        {
            "constant": false,
            "inputs": [
                {
                    "internalType": "address",
                    "name": "account",
                    "type": "address"
                }
            ],
            "name": "renounceMinter",
            "outputs": [],
            "payable": false,
            "stateMutability": "nonpayable",
            "type": "function"
        },
        {
            "constant": false,
            "inputs": [
                {
                    "internalType": "address",
                    "name": "account",
                    "type": "address"
                }
            ],
            "name": "renounceBurner",
            "outputs": [],
            "payable": false,
            "stateMutability": "nonpayable",
            "type": "function"
        },
        {
            "constant": true,
            "inputs": [
                {
                    "internalType": "address",
                    "name": "account",
                    "type": "address"
                }
            ],
            "name": "isMinter",
            "outputs": [
                {
                    "internalType": "bool",
                    "name": "",
                    "type": "bool"
                }
            ],
            "payable": false,
            "stateMutability": "view",
            "type": "function"
        },
        {
            "constant": true,
            "inputs": [
                {
                    "internalType": "address",
                    "name": "account",
                    "type": "address"
                }
            ],
            "name": "isBurner",
            "outputs": [
                {
                    "internalType": "bool",
                    "name": "",
                    "type": "bool"
                }
            ],
            "payable": false,
            "stateMutability": "view",
            "type": "function"
        },
        {
            "constant": false,
            "inputs": [
                {
                    "internalType": "address",
                    "name": "to",
                    "type": "address"
                },
                {
                    "internalType": "uint256",
                    "name": "amount",
                    "type": "uint256"
                }
            ],
            "name": "mint",
            "outputs": [
                {
                    "internalType": "bool",
                    "name": "",
                    "type": "bool"
                }
            ],
            "payable": false,
            "stateMutability": "nonpayable",
            "type": "function"
        },
        {
            "constant": false,
            "inputs": [
                {
                    "internalType": "uint256",
                    "name": "amount",
                    "type": "uint256"
                }
            ],
            "name": "burn",
            "outputs": [
                {
                    "internalType": "bool",
                    "name": "",
                    "type": "bool"
                }
            ],
            "payable": false,
            "stateMutability": "nonpayable",
            "type": "function"
        }
    ],
    "bytecode": "0x60806040523480156200001157600080fd5b50604051620038b3380380620038b3833981810160405260608110156200003757600080fd5b81019080805160405193929190846401000000008211156200005857600080fd5b838201915060208201858111156200006f57600080fd5b82518660018202830111640100000000821117156200008d57600080fd5b8083526020830192505050908051906020019080838360005b83811015620000c3578082015181840152602081019050620000a6565b50505050905090810190601f168015620000f15780820380516001836020036101000a031916815260200191505b50604052602001805160405193929190846401000000008211156200011557600080fd5b838201915060208201858111156200012c57600080fd5b82518660018202830111640100000000821117156200014a57600080fd5b8083526020830192505050908051906020019080838360005b838110156200018057808201518184015260208101905062000163565b50505050905090810190601f168015620001ae5780820380516001836020036101000a031916815260200191505b50604052602001805190602001909291905050508282828282826000620001da6200037d60201b60201c565b9050806000806101000a81548173ffffffffffffffffffffffffffffffffffffffff021916908373ffffffffffffffffffffffffffffffffffffffff1602179055508073ffffffffffffffffffffffffffffffffffffffff16600073ffffffffffffffffffffffffffffffffffffffff167f8be0079c531659141344cd1fd0a4f28419497f9722a3daafe3b4186f6b6457e060405160405180910390a3508260019080519060200190620002909291906200060b565b508160029080519060200190620002a99291906200060b565b5080600360006101000a81548160ff021916908360ff16021790555050505060006008819055506000600a81905550620002e86200037d60201b60201c565b600c60006101000a81548173ffffffffffffffffffffffffffffffffffffffff021916908373ffffffffffffffffffffffffffffffffffffffff160217905550612710600b8190555050505062000354620003486200037d60201b60201c565b6200038560201b60201c565b62000374620003686200037d60201b60201c565b620003e660201b60201c565b505050620006ba565b600033905090565b620003a081600d6200044760201b62002c881790919060201c565b8073ffffffffffffffffffffffffffffffffffffffff167f6ae172837ea30b801fbfcdd4108aa1d5bf8ff775444fd70256b44e6bf3dfc3f660405160405180910390a250565b6200040181600e6200044760201b62002c881790919060201c565b8073ffffffffffffffffffffffffffffffffffffffff167f86e57fd2b90329052917118de7c3f521f400d439b9650deaa906a25b08b9456060405160405180910390a250565b6200045982826200052b60201b60201c565b15620004cd576040517f08c379a000000000000000000000000000000000000000000000000000000000815260040180806020018281038252601f8152602001807f526f6c65733a206163636f756e7420616c72656164792068617320726f6c650081525060200191505060405180910390fd5b60018260000160008373ffffffffffffffffffffffffffffffffffffffff1673ffffffffffffffffffffffffffffffffffffffff16815260200190815260200160002060006101000a81548160ff0219169083151502179055505050565b60008073ffffffffffffffffffffffffffffffffffffffff168273ffffffffffffffffffffffffffffffffffffffff161415620005b4576040517f08c379a0000000000000000000000000000000000000000000000000000000008152600401808060200182810382526022815260200180620038916022913960400191505060405180910390fd5b8260000160008373ffffffffffffffffffffffffffffffffffffffff1673ffffffffffffffffffffffffffffffffffffffff16815260200190815260200160002060009054906101000a900460ff16905092915050565b828054600181600116156101000203166002900490600052602060002090601f016020900481019282601f106200064e57805160ff19168380011785556200067f565b828001600101855582156200067f579182015b828111156200067e57825182559160200191906001019062000661565b5b5090506200068e919062000692565b5090565b620006b791905b80821115620006b357600081600090555060010162000699565b5090565b90565b6131c780620006ca6000396000f3fe608060405234801561001057600080fd5b50600436106101f05760003560e01c8063715018a61161010f578063a9059cbb116100a2578063dd644f7211610071578063dd644f7214610ab1578063f2fde38b14610acf578063f44637ba14610b13578063faaebd2114610b57576101f0565b8063a9059cbb146108f1578063aa271e1a14610957578063d065a299146109b3578063dd62ed3e14610a39576101f0565b806396ce0795116100de57806396ce0795146107df578063983b2d56146107fd5780639cf160f614610841578063a457c2d71461088b576101f0565b8063715018a6146106e65780638da5cb5b146106f05780638f32d59b1461073a57806395d89b411461075c576101f0565b806339509351116101875780635a0ce676116101565780635a0ce676146105ac5780635f112c6814610606578063660145be1461064a57806370a082311461068e576101f0565b8063395093511461043e57806340c10f19146104a457806342966c681461050a5780634334614a14610550576101f0565b806323b872dd116101c357806323b872dd1461031a578063313ce567146103a057806335390714146103c4578063373071f2146103e2576101f0565b806306fdde03146101f5578063095ea7b31461027857806318160ddd146102de5780631a7626e7146102fc575b600080fd5b6101fd610bc8565b6040518080602001828103825283818151815260200191508051906020019080838360005b8381101561023d578082015181840152602081019050610222565b50505050905090810190601f16801561026a5780820380516001836020036101000a031916815260200191505b509250505060405180910390f35b6102c46004803603604081101561028e57600080fd5b81019080803573ffffffffffffffffffffffffffffffffffffffff16906020019092919080359060200190929190505050610c6a565b604051808215151515815260200191505060405180910390f35b6102e6610c88565b6040518082815260200191505060405180910390f35b610304610c92565b6040518082815260200191505060405180910390f35b6103866004803603606081101561033057600080fd5b81019080803573ffffffffffffffffffffffffffffffffffffffff169060200190929190803573ffffffffffffffffffffffffffffffffffffffff16906020019092919080359060200190929190505050610c9c565b604051808215151515815260200191505060405180910390f35b6103a8610d75565b604051808260ff1660ff16815260200191505060405180910390f35b6103cc610d8c565b6040518082815260200191505060405180910390f35b610424600480360360208110156103f857600080fd5b81019080803573ffffffffffffffffffffffffffffffffffffffff169060200190929190505050610d96565b604051808215151515815260200191505060405180910390f35b61048a6004803603604081101561045457600080fd5b81019080803573ffffffffffffffffffffffffffffffffffffffff16906020019092919080359060200190929190505050610f5e565b604051808215151515815260200191505060405180910390f35b6104f0600480360360408110156104ba57600080fd5b81019080803573ffffffffffffffffffffffffffffffffffffffff16906020019092919080359060200190929190505050611011565b604051808215151515815260200191505060405180910390f35b6105366004803603602081101561052057600080fd5b810190808035906020019092919050505061108c565b604051808215151515815260200191505060405180910390f35b6105926004803603602081101561056657600080fd5b81019080803573ffffffffffffffffffffffffffffffffffffffff169060200190929190505050611109565b604051808215151515815260200191505060405180910390f35b6105ec600480360360608110156105c257600080fd5b81019080803590602001909291908035906020019092919080359060200190929190505050611126565b604051808215151515815260200191505060405180910390f35b6106486004803603602081101561061c57600080fd5b81019080803573ffffffffffffffffffffffffffffffffffffffff1690602001909291905050506111f1565b005b61068c6004803603602081101561066057600080fd5b81019080803573ffffffffffffffffffffffffffffffffffffffff169060200190929190505050611277565b005b6106d0600480360360208110156106a457600080fd5b81019080803573ffffffffffffffffffffffffffffffffffffffff1690602001909291905050506112fd565b6040518082815260200191505060405180910390f35b6106ee611346565b005b6106f861147f565b604051808273ffffffffffffffffffffffffffffffffffffffff1673ffffffffffffffffffffffffffffffffffffffff16815260200191505060405180910390f35b6107426114a8565b604051808215151515815260200191505060405180910390f35b610764611506565b6040518080602001828103825283818151815260200191508051906020019080838360005b838110156107a4578082015181840152602081019050610789565b50505050905090810190601f1680156107d15780820380516001836020036101000a031916815260200191505b509250505060405180910390f35b6107e76115a8565b6040518082815260200191505060405180910390f35b61083f6004803603602081101561081357600080fd5b81019080803573ffffffffffffffffffffffffffffffffffffffff1690602001909291905050506115b2565b005b610849611638565b604051808273ffffffffffffffffffffffffffffffffffffffff1673ffffffffffffffffffffffffffffffffffffffff16815260200191505060405180910390f35b6108d7600480360360408110156108a157600080fd5b81019080803573ffffffffffffffffffffffffffffffffffffffff16906020019092919080359060200190929190505050611662565b604051808215151515815260200191505060405180910390f35b61093d6004803603604081101561090757600080fd5b81019080803573ffffffffffffffffffffffffffffffffffffffff1690602001909291908035906020019092919050505061172f565b604051808215151515815260200191505060405180910390f35b6109996004803603602081101561096d57600080fd5b81019080803573ffffffffffffffffffffffffffffffffffffffff16906020019092919050505061174d565b604051808215151515815260200191505060405180910390f35b610a1f600480360360a08110156109c957600080fd5b81019080803573ffffffffffffffffffffffffffffffffffffffff16906020019092919080359060200190929190803590602001909291908035906020019092919080351515906020019092919050505061176a565b604051808215151515815260200191505060405180910390f35b610a9b60048036036040811015610a4f57600080fd5b81019080803573ffffffffffffffffffffffffffffffffffffffff169060200190929190803573ffffffffffffffffffffffffffffffffffffffff1690602001909291905050506118f9565b6040518082815260200191505060405180910390f35b610ab9611980565b6040518082815260200191505060405180910390f35b610b1160048036036020811015610ae557600080fd5b81019080803573ffffffffffffffffffffffffffffffffffffffff16906020019092919050505061198a565b005b610b5560048036036020811015610b2957600080fd5b81019080803573ffffffffffffffffffffffffffffffffffffffff169060200190929190505050611a10565b005b610b9960048036036020811015610b6d57600080fd5b81019080803573ffffffffffffffffffffffffffffffffffffffff169060200190929190505050611a96565b604051808581526020018481526020018381526020018215151515815260200194505050505060405180910390f35b606060018054600181600116156101000203166002900480601f016020809104026020016040519081016040528092919081815260200182805460018160011615610100020316600290048015610c605780601f10610c3557610100808354040283529160200191610c60565b820191906000526020600020905b815481529060010190602001808311610c4357829003601f168201915b5050505050905090565b6000610c7e610c77611bc4565b8484611bcc565b6001905092915050565b6000600754905090565b6000600954905090565b6000610ca9848484611dc3565b610d6a84610cb5611bc4565b610d65856040518060600160405280602881526020016130df60289139600560008b73ffffffffffffffffffffffffffffffffffffffff1673ffffffffffffffffffffffffffffffffffffffff1681526020019081526020016000206000610d1b611bc4565b73ffffffffffffffffffffffffffffffffffffffff1673ffffffffffffffffffffffffffffffffffffffff168152602001908152602001600020546122639092919063ffffffff16565b611bcc565b600190509392505050565b6000600360009054906101000a900460ff16905090565b6000600a54905090565b6000610da06114a8565b610e12576040517f08c379a00000000000000000000000000000000000000000000000000000000081526004018080602001828103825260208152602001807f4f776e61626c653a2063616c6c6572206973206e6f7420746865206f776e657281525060200191505060405180910390fd5b600073ffffffffffffffffffffffffffffffffffffffff168273ffffffffffffffffffffffffffffffffffffffff161415610e98576040517f08c379a0000000000000000000000000000000000000000000000000000000008152600401808060200182810382526038815260200180612fdf6038913960400191505060405180910390fd5b8173ffffffffffffffffffffffffffffffffffffffff16600c60009054906101000a900473ffffffffffffffffffffffffffffffffffffffff1673ffffffffffffffffffffffffffffffffffffffff167faa031270faa14f493eb7abc5f320365ba17b6cee9ff519872743406dbbc77c4460405160405180910390a381600c60006101000a81548173ffffffffffffffffffffffffffffffffffffffff021916908373ffffffffffffffffffffffffffffffffffffffff16021790555060019050919050565b6000611007610f6b611bc4565b846110028560056000610f7c611bc4565b73ffffffffffffffffffffffffffffffffffffffff1673ffffffffffffffffffffffffffffffffffffffff16815260200190815260200160002060008973ffffffffffffffffffffffffffffffffffffffff1673ffffffffffffffffffffffffffffffffffffffff1681526020019081526020016000205461232390919063ffffffff16565b611bcc565b6001905092915050565b600061102361101e611bc4565b61174d565b611078576040517f08c379a000000000000000000000000000000000000000000000000000000000815260040180806020018281038252603081526020018061306d6030913960400191505060405180910390fd5b61108283836123ab565b6001905092915050565b600061109e611099611bc4565b611109565b6110f3576040517f08c379a000000000000000000000000000000000000000000000000000000000815260040180806020018281038252603081526020018061303d6030913960400191505060405180910390fd5b6111046110fe611bc4565b83612568565b919050565b600061111f82600e61272290919063ffffffff16565b9050919050565b60006111306114a8565b6111a2576040517f08c379a00000000000000000000000000000000000000000000000000000000081526004018080602001828103825260208152602001807f4f776e61626c653a2063616c6c6572206973206e6f7420746865206f776e657281525060200191505060405180910390fd5b836008819055508260098190555081600a819055508183857fd16858b87f79d06c5d7f4cdf7f0943a3b343a9eb149c10ec26e7bcaae7f19bc560405160405180910390a4600190509392505050565b6111f96114a8565b61126b576040517f08c379a00000000000000000000000000000000000000000000000000000000081526004018080602001828103825260208152602001807f4f776e61626c653a2063616c6c6572206973206e6f7420746865206f776e657281525060200191505060405180910390fd5b61127481612800565b50565b61127f6114a8565b6112f1576040517f08c379a00000000000000000000000000000000000000000000000000000000081526004018080602001828103825260208152602001807f4f776e61626c653a2063616c6c6572206973206e6f7420746865206f776e657281525060200191505060405180910390fd5b6112fa8161285a565b50565b6000600460008373ffffffffffffffffffffffffffffffffffffffff1673ffffffffffffffffffffffffffffffffffffffff168152602001908152602001600020549050919050565b61134e6114a8565b6113c0576040517f08c379a00000000000000000000000000000000000000000000000000000000081526004018080602001828103825260208152602001807f4f776e61626c653a2063616c6c6572206973206e6f7420746865206f776e657281525060200191505060405180910390fd5b600073ffffffffffffffffffffffffffffffffffffffff166000809054906101000a900473ffffffffffffffffffffffffffffffffffffffff1673ffffffffffffffffffffffffffffffffffffffff167f8be0079c531659141344cd1fd0a4f28419497f9722a3daafe3b4186f6b6457e060405160405180910390a360008060006101000a81548173ffffffffffffffffffffffffffffffffffffffff021916908373ffffffffffffffffffffffffffffffffffffffff160217905550565b60008060009054906101000a900473ffffffffffffffffffffffffffffffffffffffff16905090565b60008060009054906101000a900473ffffffffffffffffffffffffffffffffffffffff1673ffffffffffffffffffffffffffffffffffffffff166114ea611bc4565b73ffffffffffffffffffffffffffffffffffffffff1614905090565b606060028054600181600116156101000203166002900480601f01602080910402602001604051908101604052809291908181526020018280546001816001161561010002031660029004801561159e5780601f106115735761010080835404028352916020019161159e565b820191906000526020600020905b81548152906001019060200180831161158157829003601f168201915b5050505050905090565b6000600b54905090565b6115ba6114a8565b61162c576040517f08c379a00000000000000000000000000000000000000000000000000000000081526004018080602001828103825260208152602001807f4f776e61626c653a2063616c6c6572206973206e6f7420746865206f776e657281525060200191505060405180910390fd5b611635816128b4565b50565b6000600c60009054906101000a900473ffffffffffffffffffffffffffffffffffffffff16905090565b600061172561166f611bc4565b846117208560405180606001604052806025815260200161316e6025913960056000611699611bc4565b73ffffffffffffffffffffffffffffffffffffffff1673ffffffffffffffffffffffffffffffffffffffff16815260200190815260200160002060008a73ffffffffffffffffffffffffffffffffffffffff1673ffffffffffffffffffffffffffffffffffffffff168152602001908152602001600020546122639092919063ffffffff16565b611bcc565b6001905092915050565b600061174361173c611bc4565b8484611dc3565b6001905092915050565b600061176382600d61272290919063ffffffff16565b9050919050565b60006117746114a8565b6117e6576040517f08c379a00000000000000000000000000000000000000000000000000000000081526004018080602001828103825260208152602001807f4f776e61626c653a2063616c6c6572206973206e6f7420746865206f776e657281525060200191505060405180910390fd5b6117ee612ef9565b6040518060800160405280878152602001868152602001858152602001841515815250905080600660008973ffffffffffffffffffffffffffffffffffffffff1673ffffffffffffffffffffffffffffffffffffffff16815260200190815260200160002060008201518160000155602082015181600101556040820151816002015560608201518160030160006101000a81548160ff021916908315150217905550905050858773ffffffffffffffffffffffffffffffffffffffff167f4911f2dd30c062d375fa4a40dff10ef4d0a8f9334fb6752076e27747f3ba2e888787604051808381526020018281526020019250505060405180910390a3600191505095945050505050565b6000600560008473ffffffffffffffffffffffffffffffffffffffff1673ffffffffffffffffffffffffffffffffffffffff16815260200190815260200160002060008373ffffffffffffffffffffffffffffffffffffffff1673ffffffffffffffffffffffffffffffffffffffff16815260200190815260200160002054905092915050565b6000600854905090565b6119926114a8565b611a04576040517f08c379a00000000000000000000000000000000000000000000000000000000081526004018080602001828103825260208152602001807f4f776e61626c653a2063616c6c6572206973206e6f7420746865206f776e657281525060200191505060405180910390fd5b611a0d8161290e565b50565b611a186114a8565b611a8a576040517f08c379a00000000000000000000000000000000000000000000000000000000081526004018080602001828103825260208152602001807f4f776e61626c653a2063616c6c6572206973206e6f7420746865206f776e657281525060200191505060405180910390fd5b611a9381612a52565b50565b600080600080600660008673ffffffffffffffffffffffffffffffffffffffff1673ffffffffffffffffffffffffffffffffffffffff16815260200190815260200160002060000154600660008773ffffffffffffffffffffffffffffffffffffffff1673ffffffffffffffffffffffffffffffffffffffff16815260200190815260200160002060010154600660008873ffffffffffffffffffffffffffffffffffffffff1673ffffffffffffffffffffffffffffffffffffffff16815260200190815260200160002060020154600660008973ffffffffffffffffffffffffffffffffffffffff1673ffffffffffffffffffffffffffffffffffffffff16815260200190815260200160002060030160009054906101000a900460ff1693509350935093509193509193565b600033905090565b600073ffffffffffffffffffffffffffffffffffffffff168373ffffffffffffffffffffffffffffffffffffffff161415611c52576040517f08c379a000000000000000000000000000000000000000000000000000000000815260040180806020018281038252602481526020018061314a6024913960400191505060405180910390fd5b600073ffffffffffffffffffffffffffffffffffffffff168273ffffffffffffffffffffffffffffffffffffffff161415611cd8576040517f08c379a0000000000000000000000000000000000000000000000000000000008152600401808060200182810382526022815260200180612fbd6022913960400191505060405180910390fd5b80600560008573ffffffffffffffffffffffffffffffffffffffff1673ffffffffffffffffffffffffffffffffffffffff16815260200190815260200160002060008473ffffffffffffffffffffffffffffffffffffffff1673ffffffffffffffffffffffffffffffffffffffff168152602001908152602001600020819055508173ffffffffffffffffffffffffffffffffffffffff168373ffffffffffffffffffffffffffffffffffffffff167f8c5be1e5ebec7d5bd14f71427d1e84f3dd0314c0f7b2291e5b200ac8c7c3b925836040518082815260200191505060405180910390a3505050565b600073ffffffffffffffffffffffffffffffffffffffff168373ffffffffffffffffffffffffffffffffffffffff161415611e49576040517f08c379a0000000000000000000000000000000000000000000000000000000008152600401808060200182810382526028815260200180612f4d6028913960400191505060405180910390fd5b600073ffffffffffffffffffffffffffffffffffffffff168273ffffffffffffffffffffffffffffffffffffffff161415611ecf576040517f08c379a00000000000000000000000000000000000000000000000000000000081526004018080602001828103825260268152602001806130176026913960400191505060405180910390fd5b6000611edb8483612aac565b905080821015611f53576040517f08c379a000000000000000000000000000000000000000000000000000000000815260040180806020018281038252601e8152602001807f45524332304665653a20616d6f756e74206c657373207468656e20666565000081525060200191505060405180910390fd5b611fbf82604051806060016040528060298152602001612f2460299139600460008873ffffffffffffffffffffffffffffffffffffffff1673ffffffffffffffffffffffffffffffffffffffff168152602001908152602001600020546122639092919063ffffffff16565b600460008673ffffffffffffffffffffffffffffffffffffffff1673ffffffffffffffffffffffffffffffffffffffff1681526020019081526020016000208190555060006120178284612b8190919063ffffffff16565b905061206b81600460008773ffffffffffffffffffffffffffffffffffffffff1673ffffffffffffffffffffffffffffffffffffffff1681526020019081526020016000205461232390919063ffffffff16565b600460008673ffffffffffffffffffffffffffffffffffffffff1673ffffffffffffffffffffffffffffffffffffffff168152602001908152602001600020819055508373ffffffffffffffffffffffffffffffffffffffff168573ffffffffffffffffffffffffffffffffffffffff167fddf252ad1be2c89b69c2b068fc378daa952ba7f163c4a11628f55a4df523b3ef836040518082815260200191505060405180910390a3600082111561225c576121908260046000600c60009054906101000a900473ffffffffffffffffffffffffffffffffffffffff1673ffffffffffffffffffffffffffffffffffffffff1673ffffffffffffffffffffffffffffffffffffffff1681526020019081526020016000205461232390919063ffffffff16565b60046000600c60009054906101000a900473ffffffffffffffffffffffffffffffffffffffff1673ffffffffffffffffffffffffffffffffffffffff1673ffffffffffffffffffffffffffffffffffffffff1681526020019081526020016000208190555081600c60009054906101000a900473ffffffffffffffffffffffffffffffffffffffff1673ffffffffffffffffffffffffffffffffffffffff167f7bd3aa7d673767f759ebf216e7f6c12844986c661ae6e0f1d988cf7eb7394d1d60405160405180910390a35b5050505050565b6000838311158290612310576040517f08c379a00000000000000000000000000000000000000000000000000000000081526004018080602001828103825283818151815260200191508051906020019080838360005b838110156122d55780820151818401526020810190506122ba565b50505050905090810190601f1680156123025780820380516001836020036101000a031916815260200191505b509250505060405180910390fd5b5060008385039050809150509392505050565b6000808284019050838110156123a1576040517f08c379a000000000000000000000000000000000000000000000000000000000815260040180806020018281038252601b8152602001807f536166654d6174683a206164646974696f6e206f766572666c6f77000000000081525060200191505060405180910390fd5b8091505092915050565b600073ffffffffffffffffffffffffffffffffffffffff168273ffffffffffffffffffffffffffffffffffffffff16141561244e576040517f08c379a000000000000000000000000000000000000000000000000000000000815260040180806020018281038252601f8152602001807f45524332303a206d696e7420746f20746865207a65726f20616464726573730081525060200191505060405180910390fd5b6124638160075461232390919063ffffffff16565b6007819055506124bb81600460008573ffffffffffffffffffffffffffffffffffffffff1673ffffffffffffffffffffffffffffffffffffffff1681526020019081526020016000205461232390919063ffffffff16565b600460008473ffffffffffffffffffffffffffffffffffffffff1673ffffffffffffffffffffffffffffffffffffffff168152602001908152602001600020819055508173ffffffffffffffffffffffffffffffffffffffff16600073ffffffffffffffffffffffffffffffffffffffff167fddf252ad1be2c89b69c2b068fc378daa952ba7f163c4a11628f55a4df523b3ef836040518082815260200191505060405180910390a35050565b600073ffffffffffffffffffffffffffffffffffffffff168273ffffffffffffffffffffffffffffffffffffffff1614156125ee576040517f08c379a00000000000000000000000000000000000000000000000000000000081526004018080602001828103825260218152602001806131296021913960400191505060405180910390fd5b61265a81604051806060016040528060228152602001612f7560229139600460008673ffffffffffffffffffffffffffffffffffffffff1673ffffffffffffffffffffffffffffffffffffffff168152602001908152602001600020546122639092919063ffffffff16565b600460008473ffffffffffffffffffffffffffffffffffffffff1673ffffffffffffffffffffffffffffffffffffffff168152602001908152602001600020819055506126b281600754612b8190919063ffffffff16565b600781905550600073ffffffffffffffffffffffffffffffffffffffff168273ffffffffffffffffffffffffffffffffffffffff167fddf252ad1be2c89b69c2b068fc378daa952ba7f163c4a11628f55a4df523b3ef836040518082815260200191505060405180910390a35050565b60008073ffffffffffffffffffffffffffffffffffffffff168273ffffffffffffffffffffffffffffffffffffffff1614156127a9576040517f08c379a00000000000000000000000000000000000000000000000000000000081526004018080602001828103825260228152602001806131076022913960400191505060405180910390fd5b8260000160008373ffffffffffffffffffffffffffffffffffffffff1673ffffffffffffffffffffffffffffffffffffffff16815260200190815260200160002060009054906101000a900460ff16905092915050565b61281481600d612bcb90919063ffffffff16565b8073ffffffffffffffffffffffffffffffffffffffff167fe94479a9f7e1952cc78f2d6baab678adc1b772d936c6583def489e524cb6669260405160405180910390a250565b61286e81600e612bcb90919063ffffffff16565b8073ffffffffffffffffffffffffffffffffffffffff167f90eabbc0c667db2a5029ed6bc0f5fe9f356d11684a4ca9fcfaec0e53f12b9c8e60405160405180910390a250565b6128c881600d612c8890919063ffffffff16565b8073ffffffffffffffffffffffffffffffffffffffff167f6ae172837ea30b801fbfcdd4108aa1d5bf8ff775444fd70256b44e6bf3dfc3f660405160405180910390a250565b600073ffffffffffffffffffffffffffffffffffffffff168173ffffffffffffffffffffffffffffffffffffffff161415612994576040517f08c379a0000000000000000000000000000000000000000000000000000000008152600401808060200182810382526026815260200180612f976026913960400191505060405180910390fd5b8073ffffffffffffffffffffffffffffffffffffffff166000809054906101000a900473ffffffffffffffffffffffffffffffffffffffff1673ffffffffffffffffffffffffffffffffffffffff167f8be0079c531659141344cd1fd0a4f28419497f9722a3daafe3b4186f6b6457e060405160405180910390a3806000806101000a81548173ffffffffffffffffffffffffffffffffffffffff021916908373ffffffffffffffffffffffffffffffffffffffff16021790555050565b612a6681600e612c8890919063ffffffff16565b8073ffffffffffffffffffffffffffffffffffffffff167f86e57fd2b90329052917118de7c3f521f400d439b9650deaa906a25b08b9456060405160405180910390a250565b6000806000806000612abd87611a96565b93509350935093508015612b20576000612af4600b54612ae6878a612d6390919063ffffffff16565b612de990919063ffffffff16565b905083811015612b0657839050612b13565b82811115612b12578290505b5b8095505050505050612b7b565b6000612b4b600b54612b3d6008548a612d6390919063ffffffff16565b612de990919063ffffffff16565b9050600954811015612b61576009549050612b72565b600a54811115612b7157600a5490505b5b80955050505050505b92915050565b6000612bc383836040518060400160405280601e81526020017f536166654d6174683a207375627472616374696f6e206f766572666c6f770000815250612263565b905092915050565b612bd58282612722565b612c2a576040517f08c379a000000000000000000000000000000000000000000000000000000000815260040180806020018281038252602181526020018061309d6021913960400191505060405180910390fd5b60008260000160008373ffffffffffffffffffffffffffffffffffffffff1673ffffffffffffffffffffffffffffffffffffffff16815260200190815260200160002060006101000a81548160ff0219169083151502179055505050565b612c928282612722565b15612d05576040517f08c379a000000000000000000000000000000000000000000000000000000000815260040180806020018281038252601f8152602001807f526f6c65733a206163636f756e7420616c72656164792068617320726f6c650081525060200191505060405180910390fd5b60018260000160008373ffffffffffffffffffffffffffffffffffffffff1673ffffffffffffffffffffffffffffffffffffffff16815260200190815260200160002060006101000a81548160ff0219169083151502179055505050565b600080831415612d765760009050612de3565b6000828402905082848281612d8757fe5b0414612dde576040517f08c379a00000000000000000000000000000000000000000000000000000000081526004018080602001828103825260218152602001806130be6021913960400191505060405180910390fd5b809150505b92915050565b6000612e2b83836040518060400160405280601a81526020017f536166654d6174683a206469766973696f6e206279207a65726f000000000000815250612e33565b905092915050565b60008083118290612edf576040517f08c379a00000000000000000000000000000000000000000000000000000000081526004018080602001828103825283818151815260200191508051906020019080838360005b83811015612ea4578082015181840152602081019050612e89565b50505050905090810190601f168015612ed15780820380516001836020036101000a031916815260200191505b509250505060405180910390fd5b506000838581612eeb57fe5b049050809150509392505050565b6040518060800160405280600081526020016000815260200160008152602001600015158152509056fe45524332304665653a207472616e7366657220616d6f756e7420657863656564732062616c616e636545524332304665653a207472616e736665722066726f6d20746865207a65726f206164647265737345524332303a206275726e20616d6f756e7420657863656564732062616c616e63654f776e61626c653a206e6577206f776e657220697320746865207a65726f206164647265737345524332303a20617070726f766520746f20746865207a65726f206164647265737353657446656573436f6c6c6563746f723a206e6577206665657320636f6c6c6563746f7220697320746865207a65726f206164647265737345524332304665653a207472616e7366657220746f20746865207a65726f20616464726573734275726e6572526f6c653a2063616c6c657220646f6573206e6f74206861766520746865204275726e657220726f6c654d696e746572526f6c653a2063616c6c657220646f6573206e6f74206861766520746865204d696e74657220726f6c65526f6c65733a206163636f756e7420646f6573206e6f74206861766520726f6c65536166654d6174683a206d756c7469706c69636174696f6e206f766572666c6f7745524332303a207472616e7366657220616d6f756e74206578636565647320616c6c6f77616e6365526f6c65733a206163636f756e7420697320746865207a65726f206164647265737345524332303a206275726e2066726f6d20746865207a65726f206164647265737345524332303a20617070726f76652066726f6d20746865207a65726f206164647265737345524332303a2064656372656173656420616c6c6f77616e63652062656c6f77207a65726fa265627a7a723158209d7ca7b27aa3f454ee9f2b4dfb0421f91c98042eb7f2fb2b85d9ce6df486333864736f6c63430005100032526f6c65733a206163636f756e7420697320746865207a65726f2061646472657373",
    "source": "pragma solidity ^0.5.0;\n\nimport \"./@openzeppelin/contracts/access/Roles.sol\";\nimport \"./@openzeppelin/contracts/token/ERC20/ERC20Fee.sol\";\n\ncontract StableCoin is ERC20Fee {\n    using Roles for Roles.Role;\n\n    Roles.Role private _minters;\n    Roles.Role private _burners;\n\n    /**\n     * @dev Emitted when account get access to {MinterRole}\n     */\n    event MinterAdded(address indexed account);\n\n    /**\n     * @dev Emitted when account get access to {BurnerRole}\n     */\n    event BurnerAdded(address indexed account);\n\n    /**\n     * @dev Emitted when an account loses access to the {MinterRole}\n     */\n    event MinterRemoved(address indexed account);\n\n    /**\n     * @dev Emitted when an account loses access to the {BurnerRole}\n     */\n    event BurnerRemoved(address indexed account);\n\n    /**\n     * @dev Throws if caller does not have the {MinterRole}\n     */\n    modifier onlyMinter() {\n        require(\n            isMinter(_msgSender()),\n            \"MinterRole: caller does not have the Minter role\"\n        );\n        _;\n    }\n\n    /**\n     * @dev Throws if caller does not have the {BurnerRole}\n     */\n    modifier onlyBurner() {\n        require(\n            isBurner(_msgSender()),\n            \"BurnerRole: caller does not have the Burner role\"\n        );\n        _;\n    }\n\n    /**\n     * @dev Sets the values for `name`, `symbol`, `decimals`\n     * and gives owner {MinterRole} and {BurnerRole}\n     * @param name The name of the token\n     * @param symbol The symbol of the token \n     * @param decimals The number of decimals the token uses\n     * @notice `name`, `symbol` and `decimals`\n     * values are immutable: they can only be set once during construction\n     */\n    constructor(string memory name, string memory symbol, uint8 decimals)\n        public\n        ERC20Fee(name, symbol, decimals)\n    {\n        _addMinter(_msgSender());\n        _addBurner(_msgSender());\n    }\n\n    /**\n     * @dev Give an account access to {MinterRole}\n     * @param account Account address\n     */\n    function addMinter(address account) external onlyOwner {\n        _addMinter(account);\n    }\n\n    /**\n     * @dev Give an account access to {BurnerRole}\n     * @param account Account address\n     */\n    function addBurner(address account) external onlyOwner {\n        _addBurner(account);\n    }\n\n    /**\n    /**\n     * @dev Remove an account's access to {MinterRole}\n     * @param account Account address\n     */\n    function renounceMinter(address account) external onlyOwner {\n        _removeMinter(account);\n    }\n\n    /**\n     * @dev Remove an account's access to {BurnerRole}\n     * @param account Account address\n     */\n    function renounceBurner(address account) external onlyOwner {\n        _removeBurner(account);\n    }\n\n    /**\n     * @dev Check if an account has {MinterRole}\n     * @param account Account address\n     * @return bool\n     */\n    function isMinter(address account) public view returns (bool) {\n        return _minters.has(account);\n    }\n\n    /**\n     * @dev Check if an account has {BurnerRole}\n     * @param account Account address\n     * @return bool\n     */\n    function isBurner(address account) public view returns (bool) {\n        return _burners.has(account);\n    }\n\n    /**\n     * @dev Mint `amount` of tokens `to` recipient. See {ERC20-_mint}\n     * @param to Account address of recipient\n     * @param amount Amount to mint\n     * @notice Requirements:\n     * the caller must have the {MinterRole}\n     * @return bool\n     */\n    function mint(address to, uint256 amount)\n        external\n        onlyMinter\n        returns (bool)\n    {\n        _mint(to, amount);\n        return true;\n    }\n\n    /**\n     * @dev Destroys `amount` of tokens from the caller. See {ERC20-_mint}\n     * @param amount Amount to burn\n     * @notice Requirements:\n     * the caller must have the {BurnerRole}\n     * @return bool\n     */\n    function burn(uint256 amount) external onlyBurner returns (bool) {\n        _burn(_msgSender(), amount);\n    }\n\n    // Internal functions\n    function _addMinter(address account) internal {\n        _minters.add(account);\n        emit MinterAdded(account);\n    }\n\n    function _addBurner(address account) internal {\n        _burners.add(account);\n        emit BurnerAdded(account);\n    }\n\n    function _removeMinter(address account) internal {\n        _minters.remove(account);\n        emit MinterRemoved(account);\n    }\n\n    function _removeBurner(address account) internal {\n        _burners.remove(account);\n        emit BurnerRemoved(account);\n    }\n}\n",
    "sourcePath": "./stablecoin-solidity/contracts/StableCoin.sol",
    "compiler": {
        "name": "solc",
        "version": "0.5.16+commit.9c3226ce.Emscripten.clang"
    },
    "schemaVersion": "3.0.23",
    "updatedAt": "2020-03-05T12:29:08.539Z",
    "devdoc": {
        "methods": {
            "addBurner(address)": {
                "details": "Give an account access to {BurnerRole}",
                "params": {
                    "account": "Account address"
                }
            },
            "addMinter(address)": {
                "details": "Give an account access to {MinterRole}",
                "params": {
                    "account": "Account address"
                }
            },
            "allowance(address,address)": {
                "details": "See {IERC20-allowance}."
            },
            "approve(address,uint256)": {
                "details": "See {IERC20-approve}. Requirements: - `spender` cannot be the zero address."
            },
            "balanceOf(address)": {
                "details": "See {IERC20-balanceOf}."
            },
            "basisPointsRate()": {
                "details": "See {IERC20Fee-basisPointsRate}."
            },
            "burn(uint256)": {
                "details": "Destroys `amount` of tokens from the caller. See {ERC20-_mint}",
                "params": {
                    "amount": "Amount to burn"
                },
                "return": "bool"
            },
            "constructor": {
                "details": "Sets the values for `name`, `symbol`, `decimals` and gives owner {MinterRole} and {BurnerRole}",
                "params": {
                    "decimals": "The number of decimals the token uses",
                    "name": "The name of the token",
                    "symbol": "The symbol of the token "
                }
            },
            "decimals()": {
                "details": "Returns the number of decimals used to get its user representation. For example, if `decimals` equals `2`, a balance of `505` tokens should be displayed to a user as `5,05` (`505 / 10 ** 2`). Tokens usually opt for a value of 18, imitating the relationship between Ether and Wei. NOTE: This information is only used for _display_ purposes: it in no way affects any of the arithmetic of the contract, including {IERC20-balanceOf} and {IERC20-transfer}."
            },
            "decreaseAllowance(address,uint256)": {
                "details": "Atomically decreases the allowance granted to `spender` by the caller. This is an alternative to {approve} that can be used as a mitigation for problems described in {IERC20-approve}. Emits an {Approval} event indicating the updated allowance. Requirements: - `spender` cannot be the zero address. - `spender` must have allowance for the caller of at least `subtractedValue`."
            },
            "denominator()": {
                "details": "See {IERC20Fee-denominator}."
            },
            "fees(address)": {
                "details": "See {IERC20-fees}."
            },
            "feesCollector()": {
                "details": "See {IERC20Fee-feesCollector}."
            },
            "increaseAllowance(address,uint256)": {
                "details": "Atomically increases the allowance granted to `spender` by the caller. This is an alternative to {approve} that can be used as a mitigation for problems described in {IERC20-approve}. Emits an {Approval} event indicating the updated allowance. Requirements: - `spender` cannot be the zero address."
            },
            "isBurner(address)": {
                "details": "Check if an account has {BurnerRole}",
                "params": {
                    "account": "Account address"
                },
                "return": "bool"
            },
            "isMinter(address)": {
                "details": "Check if an account has {MinterRole}",
                "params": {
                    "account": "Account address"
                },
                "return": "bool"
            },
            "isOwner()": {
                "details": "Returns true if the caller is the current owner."
            },
            "maximumFee()": {
                "details": "See {IERC20Fee-maximumFee}."
            },
            "minimumFee()": {
                "details": "See {IERC20Fee-minimumFee}."
            },
            "mint(address,uint256)": {
                "details": "Mint `amount` of tokens `to` recipient. See {ERC20-_mint}",
                "params": {
                    "amount": "Amount to mint",
                    "to": "Account address of recipient"
                },
                "return": "bool"
            },
            "name()": {
                "details": "Returns the name of the token."
            },
            "owner()": {
                "details": "Returns the address of the current owner."
            },
            "renounceBurner(address)": {
                "details": "Remove an account's access to {BurnerRole}",
                "params": {
                    "account": "Account address"
                }
            },
            "renounceMinter(address)": {
                "details": "Remove an account's access to {MinterRole}",
                "params": {
                    "account": "Account address"
                }
            },
            "renounceOwnership()": {
                "details": "Leaves the contract without owner. It will not be possible to call `onlyOwner` functions anymore. Can only be called by the current owner.     * NOTE: Renouncing ownership will leave the contract without an owner, thereby removing any functionality that is only available to the owner."
            },
            "setFeesCollector(address)": {
                "details": "See {IERC20Fee-setFeesCollector}."
            },
            "setParams(uint256,uint256,uint256)": {
                "details": "See {IERC20Fee-setParams}."
            },
            "setSpecialParams(address,uint256,uint256,uint256,bool)": {
                "details": "See {IERC20Fee-setSpecialParams}."
            },
            "symbol()": {
                "details": "Returns the symbol of the token, usually a shorter version of the name."
            },
            "totalSupply()": {
                "details": "See {IERC20-totalSupply}."
            },
            "transfer(address,uint256)": {
                "details": "See {IERC20-transfer}. Requirements: - `recipient` cannot be the zero address. - the caller must have a balance of at least `amount`."
            },
            "transferFrom(address,address,uint256)": {
                "details": "See {IERC20-transferFrom}. Emits an {Approval} event indicating the updated allowance. This is not required by the EIP. See the note at the beginning of {ERC20}; Requirements: - `sender` and `recipient` cannot be the zero address. - `sender` must have a balance of at least `amount`. - the caller must have allowance for `sender`'s tokens of at least `amount`."
            },
            "transferOwnership(address)": {
                "details": "Transfers ownership of the contract to a new account (`newOwner`). Can only be called by the current owner."
            }
        }
    },
    "userdoc": {
        "methods": {
            "burn(uint256)": {
                "notice": "Requirements: the caller must have the {BurnerRole}"
            },
            "constructor": "`name`, `symbol` and `decimals` values are immutable: they can only be set once during construction",
            "mint(address,uint256)": {
                "notice": "Requirements: the caller must have the {MinterRole}"
            },
            "renounceMinter(address)": {
                "notice": "/**"
            }
        }
    }
}